:100000000C9486020C94BE020C94BE020C94BE02A8
:100010000C94BE020C94BE020C94BE020C94BE0260
:100020000C94BE020C94BE020C94592A0C94152A0E
:100030000C94562B0C94BE020C94BE020C94BE027F
:100040000C94BE020C94BE020C94BE020C94BE0230
:100050000C94BE020C94322B0C94BE020C94BE0283
:100060000C94BE020C94BE020C94BE020C94BE0210
:100070000C94BE020C94BE020C94BE020C94BE0200
:100080000C94BE020C94BE020C94BE020C94BE02F0
:100090000C94BE020C94BE020C94BE020C94BE02E0
:1000A0000C94BE020C94BE020C94BE0236302000AA
:1000B000353920003538200035372000353620000E
:1000C000353520003534200035332000353220000E
:1000D00035312000353020003439200034382000FC
:1000E00034372000343620003435200034342000EA
:1000F00034332000343220003431200034302000EA
:1001000033392000333820003337200033362000C5
:1001100033352000333420003333200033322000C5
:1001200033312000333020003239200032382000B3
:1001300032372000323620003235200032342000A1
:1001400032332000323220003231200032302000A1
:10015000313920003138200031372000313620007D
:10016000313520003134200031332000313220007D
:10017000313120003130200030392000303820006B
:100180003037200030362000303520003034200059
:10019000303320003032200030312000407E417E5C
:1001A000427E437E447E457E467E477E4F7E507E25
:1001B000517E527E537E547E557E567E5E7E5F7E9D
:1001C000607E617E627E637E647E657E6D7E6E7E15
:1001D0006F7E707E717E727E737E747E487E497EF5
:1001E0004A7E4B7E4C7E4D7E4E7E0000577E587E72
:1001F000597E5A7E5B7E5C7E5D7E0000667E677EF9
:10020000687E697E6A7E6B7E6C7E0000757E767E7F
:10021000777E787E797E7A7E7B7E00000500040002
:1002200007000600090008000B000A000001010198
:1002300001010101010102020202020202020203A3
:100240000303030303030304040404040404050573
:100250000505050606060606070707070708080836
:1002600008090909090A0A0A0B0B0B0C0C0C0D0DE5
:100270000D0E0E0E0F0F0F1010111111121213137D
:100280001414151516161717181819191A1A1B1BF6
:100290001C1D1D1E1E1F2020212222232424252652
:1002A00026272829292A2B2C2D2D2E2F303132328A
:1002B000333435363738393A3B3C3D3E3F40414296
:1002C000434445464748494A4C4D4E4F505153547C
:1002D000555658595A5B5D5E5F6162646566686930
:1002E0006B6C6D6F7072737577787A7B7D7E8082B0
:1002F000838587888A8C8E8F91939596989A9C9EF9
:10030000A0A2A3A5A7A9ABADAFB1B3B5B7BABCBE08
:10031000C0C2C4C6C9CBCDCFD1D4D6D8DBDDDFE2D5
:10032000E4E7E9EBEEF0F3F5F8FAFDFF0501090269
:10033000A10185020901A10005091901290815007B
:1003400025019508750181020501093009311581E2
:10035000257F95027508810609381581257F95014D
:1003600075088106050C0A38021581257F950175EF
:10037000088106C0C005010980A101850319012A71
:10038000B700150126B700950175108100C0050C56
:100390000901A101850419012AA002150126A00264
:1003A000950175108100C005010906A10105071915
:1003B000E029E71500250195087501810295017571
:1003C0000881010507190029FF150026FF00950681
:1003D0007508810005081901290595057501910227
:1003E000950175039101C009023B00020100A0FACA
:1003F000090400000103010100092111010001228B
:100400004000070581030800010904010001030001
:100410000000092111010001227B00070582032051
:100420000001120100020000000884889308000106
:100430000102000110036F006E0074006800650087
:100440003100350000001003680061007900610090
:100450007300680069000000040309040000000044
:10046000000000000000000000000000000000008C
:10047000000000000000000000000000000000007C
:100480007E0F00D4FFFFFFC70000007800000000CF
:10049000000000002A2B28000000000000000000DF
:1004A0000000000000000029000000002C1E342085
:1004B000212224342627252E362D3738271E1F20AB
:1004C0002122232425263333362E37381F040506F0
:1004D0000708090A0B0C0D0E0F1011121314151634
:1004E0001718191A1B1C1D2F3130232D3504050632
:1004F0000708090A0B0C0D0E0F1011121314151614
:100500001718191A1B1C1D2F3130354C11241FBE12
:10051000CFEFDAE0DEBFCDBF04B603FE18C0809196
:10052000260590912705A0912805B09129058730CF
:10053000904BA740B04B59F4109226051092270516
:100540001092280510922905E0E0F8E3099512E0E1
:10055000A0E0B1E0E4E9F3E602C005900D92AA3B09
:10056000B107D9F725E0AAEBB2E001C01D92A6328F
:10057000B207E1F70E947D2B0C940A310C94000025
:1005800090911E05937061F081110BC0946090935F
:100590001E051092100180911D05816080931D053C
:1005A00008958E3210F0946BF2CF880F880F982B3D
:1005B000EECF482F2091EC049091B30457E029131B
:1005C00002C080E0089530E0529FF001539FF00D8B
:1005D0001124EC54FB4F8181681306C080814813BD
:1005E00003C085818111EECF2F5F3F4F2770E7CF8A
:1005F00090911E05937071F080931F056093200504
:10060000493C08F048EC4093210580911D0581602C
:1006100080931D050895E8EDF0E080818E7F808352
:100620001092E2001092DA001092E100A0EEB0E029
:100630008C9181608C9380818F77808319BCA7ED2A
:10064000B0E08C918E7F8C9380818F7E808310921E
:100650009C0408952091E4003091E50095E6A901FD
:100660002091EC00822F817020FF06C08091E8006D
:1006700080FF06C080E008952091E80022FD1AC0A6
:100680008091A904882389F0853089F08091EB005E
:1006900085FD0FC02091E4003091E500421753071B
:1006A000F9F29150E1F684E0089582E0089583E044
:1006B000089581E008958091AB0487FF13C0809175
:1006C000E80082FF06C08091E8008B778093E80005
:1006D00004C08091A9048111F2CF08958091A904EA
:1006E0008823D9F38091E80080FFF8CF8091E8005B
:1006F0008E77ECCF982F9093E900242F762F50E03F
:10070000891731F07091EC002091ED005091F000CC
:1007100021FD07C09F5F973071F78093E90081E06A
:1007200008953091EB003E7F3093EB003091ED0067
:100730003D7F3093ED003091EB0031603093EB0062
:100740007093EC002093ED005093F0002091EE00A8
:1007500027FDE0CF80E00895B0E0A0E0E2EBF3E019
:100760000C945330C8EDD0E088818F7E8883E7ED0C
:10077000F0E080818160808384E082BF81E08093AB
:100780009C0488818E7F888302EE10E0F80110823D
:100790001092DA0081EEC82ED12CF60110828881E9
:1007A0008F77888388818068888388818F7D88831C
:1007B00019BC1092A9041092AA041092A8041092D5
:1007C000A70490EEE92EF12CF70180818B7F8083C6
:1007D00088818160888342E060E080E00E947A0343
:1007E000F60180818E7F8083F80180818160808323
:1007F000808188608083F70180818E7F80838881FB
:1008000080618883CDB7DEB7E8E00C946F30FC01DF
:100810008091B1049091B20486179707A0F06115FA
:10082000710529F49091E8009E779093E80090E09C
:100830006115710551F4911108C08091E80082FFA3
:1008400034C080E00895BC01F2CF8091A9048823D0
:10085000C1F18530C1F18091E80083FD30C0809105
:10086000E80082FDEACF8091E80080FFE1CF80912F
:10087000F3002091F200382F6115710519F028302E
:10088000310558F091E02830310509F090E02091D1
:10089000E8002E772093E800CBCF81918093F10080
:1008A000615071092F5F3F4FE7CF8091A9048823E2
:1008B00041F0853041F08091E80083FFBECF81E0B8
:1008C000089582E0089583E0089580919E0408953C
:1008D0009C014FB7F8948091980490919904A0914D
:1008E0009A04B0919B044FBF821B930B08952FB7BE
:1008F000F894609198047091990480919A04909171
:100900009B042FBF08952FB7F8948091980490917D
:100910009904A0919A04B0919B042FBF08959C0163
:10092000FC0132969FEF80E04191461751F09F3FC6
:1009300019F4411101C0982F8F5F8630A9F79F3FAE
:1009400009F40895290F311D97FD3A95F901628345
:100950000895A3E0B0E0EFEAF4E00C945930209160
:1009600095043091960428173907A1F090939604C6
:1009700080939504E0919304F0919404309751F0A2
:1009800024E029839B838A830680F781E02DCE01B2
:10099000019609952396E2E00C947530A3E0B0E04F
:1009A000E4EDF4E00C9459302091910430919204DC
:1009B00028173907A1F09093920480939104E09155
:1009C0009304F0919404309751F023E029839B83A2
:1009D0008A830680F781E02DCE0101960995239642
:1009E000E2E00C947530E0919304F0919404309718
:1009F00029F00190F081E02D0995089580E0089597
:100A0000FA01811101C0FB0109950895E5E9F3E0C0
:100A1000818360834283339694E0E139F907C1F71B
:100A20000895FC01EE0FFF1FE80FF91FEB56FC4F76
:100A30006183408322830895EEE1F5E0248132E072
:100A4000231B08F420E0248380911D05816080939E
:100A50001D050895EEE1F5E0248132E0230F08F44E
:100A60002FEF248380911D05816080931D050895DB
:100A7000EEE1F5E0438122E0421B08F440E0818191
:100A8000628190E00E94F8020895EEE1F5E0438172
:100A900022E0420F08F44FEF8181628190E00E94D2
:100AA000F8020895EEE1F5E0628122E0621B08F4AD
:100AB00060E08181438190E00E94F8020895EEE1B8
:100AC000F5E0628122E0620F08F46FEF81814381DB
:100AD00090E00E94F8020895EEE1F5E08181438103
:100AE00062818250990B0E94F8020895EEE1F5E0D0
:100AF000818190E04381628102960E94F80208950C
:100B000080911E0586958695815009F48DE20E949C
:100B1000C002089580911E05869586958F5F8E325E
:100B200008F081E00E94C0020895EF92FF920F93B7
:100B30009701201B31092F3F310519F010F02FEFDD
:100B400030E02095382F320F08F43FEF832F0F91BC
:100B5000FF90EF900895EF92FF920F939701201B63
:100B600031092F3F310519F010F02FEF30E0322F0F
:100B70003095482F430F08F44FEF842F620F0F91E9
:100B8000FF90EF900895EF92FF920F93972F093403
:100B900038F4B701601B71096F3F710519F010F04F
:100BA0006FEF70E0485F5F4F4131510540F0A901A0
:100BB000485F5F4F4131510510F06FEF70E0609575
:100BC000482F460F08F44FEF842F37FF02C02D5FE8
:100BD0003F4F359527953595279560911F05620FF5
:100BE000792F0F91FF90EF900895EF92FF920F935E
:100BF0001F930E0D1F2D111DF90137FF03C0F19535
:100C0000E195F10924E0EE0FFF1F2A95E1F7EF3F90
:100C1000F10519F014F0EFEFF0E09A0157FF03C06F
:100C200031952195310994E0220F331F9A95E1F710
:100C30002E173F070CF4F901E00FF11FEF3FF1050C
:100C400019F010F0EFEFF0E0E095282F3E2F230F82
:100C500008F42FEF822F1F910F91FF90EF900895CE
:100C6000EF92FF920F93970195E0099F200D311DA0
:100C700011242F3F310519F010F02FEF30E02095AF
:100C8000382F320F08F43FEF832F0F91FF90EF9032
:100C9000089522E8241B08F420E0620F089540958F
:100CA000282F429F412D1124842F0895E42FF0E036
:100CB000EE0FFF1FE354FE4F9081921B97FD91951D
:100CC000292F38E1239F212D1124620F08950F93BE
:100CD0001F9310E0F801EE0FFF1FE354FE4F9081C9
:100CE000905797FD9195000F111FF801E254FE4FA8
:100CF00000810052110B2003F001219FF00D1124FF
:100D000008E310E0091B110997FD139540039001BA
:100D1000419F300D1124E20FF31F9F01220F331F5B
:100D20002E0F3F1F37FF02C021583F4F220F232FA6
:100D3000221F330B620F1F910F9108950F931F9382
:100D4000522F10E0F801EE0FFF1FE254FE4FA0817A
:100D5000A052BB0B9D015203F001539FF00D1124D3
:100D6000000F111FD801A354BE4F0C910057110B57
:100D700040039001419F300D11242E0F3F1F37FF7C
:100D800002C021583F4F220F232F221F330B620F27
:100D90001F910F910895EF920F93972F23E0029FD9
:100DA000B0011124759567956E0D792F0F91EF9015
:100DB0000895322F50E0FA01EE0FFF1FE254FE4F6C
:100DC0009081905297FD9195440F551FFA01E3547D
:100DD000FE4F2081231B330B290F311D97FD3A95C0
:100DE000620F0895E42FF0E0EE0FFF1FE254FE4F74
:100DF0006081621B0895E42FF0E0EE0FFF1FE354C3
:100E0000FE4F6081621B0895622F0895E42FF0E089
:100E1000EE0FFF1FE354FE4F408134EE439F412D00
:100E20001124E82FF0E050E0445E5F4FDA01A21B8E
:100E3000B1099D01B7FF03C031952195310993E0B8
:100E4000220F331F9A95E1F7AF01421B530B9A0112
:100E500057FD20E0582F259F212D1124822F089522
:100E6000E42FF0E0EE0FFF1FE354FE4F408134EE1D
:100E7000439F412D1124E72FF0E050E0445E5F4F87
:100E8000DA01A21BB1099D01B7FF03C0319521957D
:100E9000310993E0220F331F9A95E1F7AF01421B0E
:100EA000530B9A0157FD20E0279F212D1124722F0B
:100EB00008950E94060508950E9411050895FC01F9
:100EC0009B01009729F480E077FF2BC080E808950C
:100ED000AC0197FF04C044275527481B590BB901A3
:100EE000640F751F37FD10C0241B350BC901A5E029
:100EF000880F991FAA95E1F70E94103080E2861BA7
:100F0000F7FF0FC081950895CB0165E0880F991F09
:100F10006A95E1F7BA01621B730B0E94103080E6FC
:100F2000EECF0895EF920F93CF93DF93D72FC82F73
:100F3000C9010E19BA010E945F07602F681B7D2F3F
:100F40008C2FDF91CF910F91EF9008950F93CF9356
:100F5000DF93D72FC82FC901BA010E945F07682FFE
:100F6000600F7D2F8C2FDF91CF910F910895EF921D
:100F70000F931F93CF93DF93D62FC72F182FC9013D
:100F80000E19010FBA010E945F07081B202F219F35
:100F9000212D1124822F6D2F7C2FDF91CF911F9156
:100FA0000F91EF900895EF920F931F93CF93DF93DC
:100FB000D62F172FC82FC9010E19070FBA010E948B
:100FC0005F07702F781B719F712D11246D2F8C2F4F
:100FD000DF91CF911F910F91EF9008950F931F9381
:100FE000CF93DF93D62FC72F182FC901212F201B96
:100FF000022FBA010E945F07982F990F990F891B42
:10100000800F282F219F212D1124822F6D2F7C2FBF
:10101000DF91CF911F910F9108950F931F93CF935D
:10102000DF93D62F172FC82FC901272F201B022F80
:10103000BA010E945F07982F990F990F782F791B9B
:10104000700F719F712D11246D2F8C2FDF91CF9117
:101050001F910F910895E82F86FDE0952E2F2F7098
:1010600086FD2F5FE695E695E695E670F0E0EB5895
:10107000FE4F9181929F902D212D112492959F706A
:101080002295207F922B2081920F87FD919580E8F9
:10109000890F08950F931F93CF93DF938B01D82F60
:1010A000C42F822F0E942B08EC2FF0E0EE0FFF1FC1
:1010B000E354FE4F90819058890F87FD8195880FEA
:1010C000682F2CE0629F612D1124600F712F8D2FEE
:1010D000DF91CF911F910F91089540910801509198
:1010E000090125E038E0429FC001439F900D529FC7
:1010F000900D1124875E994C90930901809308010B
:10110000890F0895AC018230910508F408959FEF8E
:10111000413E8EE1580740F49A0195E036952795B7
:101120009A95E1F798E0920F61E0E62FE90FFF272B
:10113000FF1F9F0135952795822F229FF001239F46
:10114000F00DF00D11244E175F0738F49FEF920F4A
:10115000961758F78FEF860F08952F3FE9F361E058
:10116000620FF6CF0F93CF93DF93D72FC82F47FD92
:10117000419588E390E0841B910947FD9395889FF2
:10118000B001899F700D700D1124229FC001239F13
:10119000900D900D1124860F971F0E948208982FA2
:1011A000990F890F682F600F7D2F8C2FDF91CF91C2
:1011B0000F91089530E020E0869F212D969F200D0D
:1011C000311D1124C9010895AF92BF92CF92DF92D1
:1011D000FF920F931F93CF93DF93362F472FE82F64
:1011E000F0E0E45DFD4F71110FC0E4918E2F2E2FC2
:1011F0006E2F722FDF91CF911F910F91FF90DF9093
:10120000CF90BF90AF900895C72FD0E02491F22ED9
:10121000022F10E056E0659FC0011124EFEFF0E0CF
:10122000BF010E94FC2F832F90E0880F991F35E5A6
:10123000369FD001379FB00D11248A1B9B0B982F2E
:10124000990F980F6F01CC1ADD0AC09ED001C19E84
:10125000B00DD09EB00D11248B2F499FA0011124F9
:10126000452F55276F01C41AD50AC09EA001C19E03
:10127000500DD09E500D11245F01A91AB108AC9EEB
:101280006001AD9ED00CBC9ED00C1124CD2CDD2471
:10129000EC19FD09E09FE001E19FD00DF09FD00D1A
:1012A0001124ED2F62307105A1F050F46115710524
:1012B00009F49ECF6130710581F0EB2F852F98CF17
:1012C0006430710569F080F06630710509F490CFE3
:1012D000F4CFE22F2B2F8D2F8BCFE22F252F88CF0E
:1012E000EB2F822F2D2F84CF2B2F8F2DE52F80CF0B
:1012F000B0E0A0E0EEE7F9E00C9454308C01FC0182
:10130000EB59FD4F8081682349F1D0902005D091A1
:101310002105C0911F05EC2EF12C0E946D08282F8D
:10132000C7018C549F4F68E671E00E9410308E19FF
:101330009F0997FD039695958795959587952370B9
:101340006C2F289F600D11247D2D8D2F0E94E408A5
:10135000462F282F672FC8010E945C07CDB7DEB744
:10136000E7E00C9470302F923F925F926F927F92E1
:101370008F929F92AF92BF92CF92DF92EF92FF92A5
:101380000F931F93CF93DF93CDB7DEB72A970FB696
:10139000F894DEBF0FBECDBF8B837E836D8320911B
:1013A0000D0181E1289F802D11248F838F5E898319
:1013B0008A83853510F034E53A838091F1048C837B
:1013C000FF81EF2FF0E0FA87E987CF01880F991F9F
:1013D0009C0123543E4F69013B81832F90E0FC0127
:1013E0003196F887EF838A8199859817E8F081E034
:1013F000E981E43508F080E02A960FB6F894DEBF64
:101400000FBECDBFDF91CF911F910F91FF90EF9055
:10141000DF90CF90BF90AF909F908F907F906F9014
:101420005F903F902F900895E985FA85EB59FD4F25
:10143000808190910E018923F1F020901F0530905A
:1014400020052F8138852F503B4F39015B8010E0FC
:10145000FC815F16D0F020912105129F112D1124DF
:10146000B101812F0E94E408462F282F672F89851C
:101470009A850E945C0729853A852F5F3F4F3A87FE
:10148000298732E0C30ED11CAECFF30181913F0119
:10149000F601A080A81ABB088180F3018781881A11
:1014A0009908AA9C9001AB9C300D300D1124889CAA
:1014B000C001899C900D900D1124820F931F0E94F2
:1014C0008208082F6091220521E0620F08F46FEF77
:1014D000F301EE0FFF1FE15FF440858996890E94BA
:1014E000DA087C019401A501B101812FED81FE8113
:1014F00009951B015394182FABCFB0E0A0E0E3E8AF
:10150000FAE00C9453308C01C0910D0181E1C89F29
:10151000C02D112421E1D22EDC0ECD2C24E52D1579
:1015200010F494E5C92E2091220531E0230F08F430
:101530002FEF30E050E040E06FEF7FEF80E090E091
:101540000E9424307901D0E02C2FCC1550F081E09E
:10155000F3E5FD1508F480E0CDB7DEB7E8E00C94C4
:101560006F30FE01EB59FD4F808190910E01892370
:1015700011F14091F1044150042E000C550B47FF2E
:101580001CC0C7016091220521E0620F08F46FEFD3
:101590000E94DA08AC0160911F05709120058091CE
:1015A0002105F80109950E94E408462F282F672F8E
:1015B000CE010E945C072196C7CFFA01EF50FB4F86
:1015C000818982130AC0FA01EE0FFF1FEF50FB4F13
:1015D000818D928D8E159F05A8F241505109CFCF74
:1015E000B0E0A0E0E6EFFAE00C9454307C01C0914A
:1015F0000D0181E1C89FC02D112411E11C0F012FA5
:10160000153508F004E5609122056695669521E0A0
:10161000620F08F46FEF8091ED049091EE040E9448
:10162000DA08D82ED0E0C01748F081E0143508F071
:1016300080E0CDB7DEB7E7E00C947030FE01EB59E7
:10164000FD4F808190910E01892391F060911F05DB
:1016500070912005809121052D2D4C2FF7010995C2
:101660000E94E408462F282F672FCE010E945C07B6
:101670002196D9CFB0E0A0E0E0E4FBE00C9450303C
:101680006C01C0910D0181E1C89FC02D112411E1B1
:101690001C0FB12E153510F034E5B32E60912205E4
:1016A000669566958091ED049091EE040E94DA08AB
:1016B000F82E80E48F0D0E942B0890E8A92EA80E2A
:1016C0008F2D0E942B0820E8922E980ED0E0CB158B
:1016D00048F081E0143508F080E0CDB7DEB7EBE0EC
:1016E0000C946C30FE01EB59FD4F808190910E01FE
:1016F0008923A1F060911F0570912005809121053B
:10170000EF2C0C2F292D4A2DF60109950E94E40893
:10171000462F282F672FCE010E945C072196D7CF36
:10172000B0E0A0E0E6E9FBE00C944E305C01C09133
:101730000D0181E1C89FC02D112411E11C0FF12E74
:10174000153510F034E5F32E6091220566958091F1
:10175000ED049091EE040E94DA08782ED0E0CF15C7
:1017600048F081E0143508F080E0CDB7DEB7EDE059
:101770000C946A30FE01EB59FD4F808190910E016F
:101780008923C9F1CE01880F991F83589E4FFC0110
:10179000E05CFF4F2081422F4057550B6A018F5B61
:1017A0009F4FFC018081282F2052330B4901449F19
:1017B0009001459F300D300D1124889CC001899CFB
:1017C000900D900D1124820F931F0E948208082F04
:1017D00060911F057091200580912105E72C9401EF
:1017E000A601F50109950E94E408462F282F672FCE
:1017F000CE010E945C072196B2CFB0E0A0E0E3E00A
:10180000FCE00C9453307C01C0910D0181E1C89F34
:10181000C02D112411E11C0FD12E153510F034E527
:10182000D32E6091220566958091ED049091EE048F
:101830000E94DA08C82ED0E0CD1548F081E01435BA
:1018400008F080E0CDB7DEB7E8E00C946F30FE0121
:10185000EB59FD4F808190910E01892311F1CE014A
:10186000880F991F83589E4FFC01EF5BFF4F20812B
:101870002052330B805C9F4FFC0140814057550B39
:1018800060911F0570912005809121050C2DF701B5
:1018900009950E94E408462F282F672FCE010E9449
:1018A0005C072196C9CF1F93CF93DF93EC01FC0116
:1018B000EB59FD4F80816823B1F00E946D08182F0D
:1018C0000E946D0820E8829FC00111247FE7790FF4
:1018D000612F809121050E94E408462F282F672F51
:1018E000CE010E945C07DF91CF911F9108950E9465
:1018F00083049C019091360380913703982B21F04B
:10190000309333032093320390913803809139034D
:10191000982B21F03093310320933003E09193040E
:10192000F0919404309749F082E08093340304806E
:10193000F581E02D84E393E00995089580912F03CC
:1019400080FD16C081FD16C082FD16C080912E0359
:101950008823A1F0883280F428E0829FC0011124FE
:1019600068E270E00E941030862F672B39F00895EE
:1019700082E0089584E0089588E0089581E0089564
:1019800080912F0380FD14C081FD14C082FD16C01C
:1019900080912D03882381F08E3180F420E5829F91
:1019A000C00111246EE170E00E941030862F08956E
:1019B00084E1089588E2089588E0089580E5089517
:1019C00080E00895F894E82FE295EF70F0E031A1FF
:1019D000282F2F7081E090E001C0880F2A95EAF748
:1019E000982F9095932391A392A1892B82A3789409
:1019F000089590910C0392FF06C0282F287128307B
:101A0000F9F4877F846093FF06C0282F287128315E
:101A1000F1F4877E846120910D0320FF06C0382FEA
:101A200038713830D9F4877F816021FF06C0282FB4
:101A300028712831D1F4877E816194FD877E0895D5
:101A4000282F24712430F9F68B7F8860DCCF282F73
:101A50002471243101F78B7E8861DDCF382F3171FD
:101A6000313019F78E7F8860E0CF282F2171213126
:101A700021F78E7E8861E1CF82389105B9F1B0F40B
:101A80008133910509F47DC048F48932910509F448
:101A90006DC08A32910509F47BC0089585339105A4
:101AA00009F45FC08933910509F10895833E9105DA
:101AB000D9F138F4803E910529F1823E910579F102
:101AC0000895863E9105D9F1873E910509F43EC0FF
:101AD000843E910541F520910D0321FF24C08091A2
:101AE0000C0384FD19C087EE90E0089520910C034B
:101AF000237009F05AC020910D0323FF14C089E21E
:101B000090E0089520910C0320FD38C030910D0322
:101B100030FF09C024FF43C090E080E00895209189
:101B20000C0322FDF7CF089520910C0322FD3AC04B
:101B300030910D0330FD39C024FFF5CFEDCF20915A
:101B40000C0323FFF0CF24FDE7CFCDCF20910C0372
:101B500023FD2EC030910D0331FFEECF84EE90E0D7
:101B6000089520910C0325FFDECFC9CF20910C03EF
:101B700025FD21C020910D0323FFD5CF89E390E0FF
:101B8000D2CF20910C0326FFCECF8AE290E00895B9
:101B900020910C0326FFC7CF81E390E0089583EEE8
:101BA00090E0089582EE90E0089580EE90E0089530
:101BB00086EE90E0089585E390E00895E62F783072
:101BC00090F4683050F581112BC088E0789FB00107
:101BD0001124E60FF72FF11DEE0FFF1FE456FE4F05
:101BE0008591949108957D3F59F46430B0F481114A
:101BF00017C084E0689FF0011124E45EFD4FF0CF30
:101C00007C3F59F4643048F481110AC084E0689F35
:101C1000F0011124E25EFD4FE3CF80E090E00895F3
:101C200081E0FCCF1F93CF93DF930E943C0DEC012A
:101C3000C11580E5D807F0F5C11580E4D80708F094
:101C40009CC0C03ED10520F5CD3CD10508F082C036
:101C5000C83AD10578F4C53AD10508F073C0C1304F
:101C6000D10519F1209709F1C430D105F0F4D0E085
:101C7000C0E01BC0C33CD105D0F7C85AD0E0CC0FA0
:101C8000DD1FC95EDE4F0990D881C02DD4640DC020
:101C9000C11580E2D80708F0D1C0C11581E0D8078E
:101CA00008F05AC0C83ED10510F7CE01DF91CF91A0
:101CB0001F910895C03682E5D80718F5C03482E533
:101CC000D80708F06BC0C03282E5D80708F05FC0C3
:101CD000C11582E5D80708F497C02C2F26952695C4
:101CE00080E2289F900111248C2F8370C1E0D0E006
:101CF00002C0CC0FDD1F8A95E2F7C22BD32BDD6823
:101D0000D4CFC03A82E5D80760F4C03882E5D8075E
:101D100008F459C0CF71D0E0DC2FCC27C46FD06A53
:101D2000C4CFC03C82E5D80708F462C0C03E82E55B
:101D3000D80708F09CCFDC2FCC27CC27DF71C06FF1
:101D4000D06AB3CFC55AD0E0CC5EDE4FC881D0E0B8
:101D5000D064ABCFD065A9CF8D2F0E94F90C182F7E
:101D6000CE0199270E943C0DC12FD0E0DC2FCC275B
:101D7000CC27DF71C82BD92B98CFCE0199270E9491
:101D80003C0DCC27DF70C82BD92BD06A8ECFCF71FA
:101D9000D0E0DC2FCC27C16FD06A87CF2C2F2695BF
:101DA0002695277080E2289F900111248C2F837044
:101DB000C1E0D0E002C0CC0FDD1F8A95E2F7C22B54
:101DC000D32BDC6872CF2C2F26952695277080E2C6
:101DD000289F900111248C2F8370C1E0D0E002C0B5
:101DE000CC0FDD1F8A95E2F7C22BD32BDA685DCFCB
:101DF0008C2F8F710E94F90CC82FD0E0DC2FCC27DC
:101E0000CC27DF71D06251CF8C2F8F710E94F90CDB
:101E100055E0D695C7955A95E1F7CF70D0E0DC2F05
:101E2000CC27282F30E084FF05C044E0220F331F69
:101E30004A95E1F7C22BD32BD06937CF8D2F8F7105
:101E40000E94F90C182FCE0199270E943C0DC12F3A
:101E5000D0E0DC2FCC27CC27DF71C82BD92BD2CFF9
:101E600080959091FC0298239093FC0208958091B4
:101E7000EC049091B304981301C008958F5F8770AC
:101E8000FACFB0E0A0E0E7E4FFE00C9452307C0130
:101E900000918F03109190038091FD029091FE02BA
:101EA000082B192BCFE0D0E0CC24C394D12CBC2E2E
:101EB000C6010C2E02C0880F991F0A94E2F78023F6
:101EC0009123892B49F4219790F7B12C8B2DCDB715
:101ED000DEB7E9E00C946E30B7018C2F0E94DE0D66
:101EE0000E94120E019779F3F1CFCF93DF93EC01AB
:101EF0000E94410FBE010E94DE0D0E94120EDF9172
:101F0000CF910895A82FA77023E0969587952A95DD
:101F1000E1F7880F991F880F991FFB01E80FF91F40
:101F200050E040E080E0219130E00A2E02C036957A
:101F300027950A94E2F721703327042E01C0220F5F
:101F40000A94EAF7822B4F5F5F4F4430510559F7EF
:101F50000895983070F4883098F448E0949F900188
:101F600011246AEC72E0820F932F911D0E94820F60
:101F700008959C5F923020F466EC72E090E0F6CF1A
:101F800080E00895262F277091E001C0990F2A95CF
:101F9000EAF723E0769567952A95E1F7660F771FB4
:101FA000660F771FFA01E60FF71F50E040E0682F39
:101FB00070E08191DF0111979B01042E02C03695DC
:101FC00027950A94E2F721702195282729232827AD
:101FD0002C934F5F5F4F4430510559F70895282FD8
:101FE000862F983068F4283050F438E0939FB00181
:101FF0001124620F711D4AEC52E00E94C20F089535
:102000009C5F9230E0F7622F70E046EC52E0F5CF33
:102010009093900380938F03089521E030E002C0F5
:10202000220F331F8A95E2F72095309580918F0318
:1020300090919003822393230E9408100895909119
:10204000F102809589238093F102282F277069F48B
:10205000891759F090910D0392FF07C086958695D8
:1020600086950E940D101092F102089521E030E053
:1020700002C0220F331F8A95E2F780918F0390915F
:102080009003822B932B0E94081008959093FE02D8
:102090008093FD020895FC0124812223C1F08081F8
:1020A00091810E94750F92959F70963091F058F42F
:1020B000925F9F70923058F4803F19F030F4883E60
:1020C00030F481E008959A5FF4CF843FD1F380E04B
:1020D0000895883EB0F3813FD1F7F3CF662309F42A
:1020E0005DC08D3C41F40E94C00C81958093370304
:1020F0000E94770C08958E3C19F40E94C00CF6CF14
:102100008F3C31F40E94C00C819580933603F0CF50
:10211000803D19F40E94C00CF8CF893D29F40E943B
:102120009E0C80933803E4CF8A3D21F40E949E0CDC
:102130008195F7CF8B3D31F40E949E0C8195809361
:102140003903D6CF8C3D19F40E949E0CF8CF9FE244
:10215000980F983070F4815D990B21E030E001C058
:10216000220F8A95EAF780913503822B80933503FD
:10217000BFCF8D3D31F480912F03816080932F0379
:10218000B7CF8E3D21F480912F038260F7CF8F3D32
:1021900009F0AECF80912F038460F0CF40913603D9
:1021A0008D3C59F48091370387FF0DC0109237039F
:1021B00041110BC010922D0308C08E3C81F4809118
:1021C000370318169CF3442381F0809138039091D3
:1021D0003903892B09F08CCF10922E0389CF8F3CC5
:1021E00049F447FFF0CF10923603809137038111F5
:1021F000ECCFE0CF803D19F41416ACF3E4CF90910E
:102200003803893D29F41916F4F610923803DBCF10
:102210008A3D19F497FFD7CFF8CF909139038B3DC2
:1022200029F497FFD0CF10923903CDCF8C3D19F40C
:102230001916CCF3C8CF9FE2980F983090F4815DC7
:10224000990B21E030E0B90102C0660F771F8A9533
:10225000E2F7CB0180959091350389238093350374
:10226000B2CF8D3D31F480912F038E7F80932F0369
:10227000AACF8E3D21F480912F038D7FF7CF8F3D24
:1022800009F0A1CF80912F038B7FF0CF292F332727
:1022900040E02115310511F0C90148E09C0164E0DE
:1022A000369527956A95E1F72115310511F04C5FB8
:1022B000C9019C013695279536952795211531053D
:1022C00011F04E5FC90196958795892B09F04F5FF4
:1022D000842F0895A6E0B0E0E0E7F1E10C945830D7
:1022E00049835A8349815A819923A1F0222391F08D
:1022F000CA010E94410F182F682F89819A810E947C
:10230000EF0F69817A81812F0E94DE0D2696E3E02E
:102310000C947430CA010E94A90F182FF2CF0F93AA
:102320001F93CF93DF938B01EA019091A90494301E
:1023300061F58093E9008FEF9091E800815095FD61
:1023400006C095ED9A95F1F700008111F5CF8091C7
:10235000E80085FF1AC00E942A03811111C08091F4
:10236000E80085FD06C08091E8008E778093E80044
:10237000F2CFF80181918F018093F100219779F7D5
:102380008091E8008E778093E800DF91CF911F91D4
:102390000F91089543E050E0BC0182E00E948F114C
:1023A000089546E050E0BC0182E00E948F1108953C
:1023B000CF93DF93EC0148E050E0BC0181E00E9444
:1023C0008F1188E0FE01AFE9B4E001900D928A958B
:1023D000E1F7DF91CF91089581E08093E00080E202
:1023E0008093D8001092C9008FE19EE40197F1F725
:1023F00000C0000087E090EBDC01809326059093FD
:102400002705A0932805B093290588E19CE00FB625
:10241000F894A895809360000FBE90936000FFCF62
:10242000539A3BB1377F2BB128604FB7F89485E9B9
:1024300093E0FC015191CF0168E02BB9000000C08E
:1024400057FF3BB9550F000000C000C000C03BB9AA
:1024500000C06A9591F7F4E081399F0751F74FBFAB
:102460008FE594E00197F1F700C000000895EEE1D8
:10247000F5E085E380838091110190911201A09194
:10248000130181839283A3838FE784838FEF8583F6
:1024900048E050E068E170E0CF010E94C030109247
:1024A0001D050895A3E0B0E0E8E5F2E10C944930A1
:1024B000C0906303D0906403E0906503F0906603DE
:1024C0008FB7F894409098045090990460909A04C3
:1024D00070909B048FBF530142018C189D08AE0879
:1024E000BF080E947704AB01BC0140936303509383
:1024F00064036093650370936603809191039091E8
:102500009203A0919303B0919403880D991DAA1D85
:10251000BB1D8093910390939203A0939303B09378
:10252000940310913A03EAE3F3E019831A822FEF40
:10253000C20ED21EE11CF11CC418D508E608F7082B
:102540003A81131324C0E981E0933A03712C81345A
:102550009747AB41B10548F480911E05F82FF37001
:102560007F2E19F0782E7694769480911001813028
:10257000E1F1882319F1823011F40C94EB1A8330C5
:1025800011F40C94F51A2396E2E10C946530218D38
:10259000328D2901712C612CC414D504E604F70492
:1025A00040F43981315039832A812F5F2A83329652
:1025B000C7CF280D391D328F218FF6CF10920D0114
:1025C0004093ED045093EE046093EF047093F00495
:1025D00089E2EAE3F3E0A1EFB4E001900D928A957D
:1025E000E1F781E080931001CECF80910B0178124A
:1025F00024C090911E05937020910A0130E081E083
:102600009217130609F480E0817080930F01809186
:10261000230590910E01981739F080930E0140E048
:1026200060E080E00E9459072DE2271560F0E72D59
:10263000F0E0E45FFE4C0C94433081E0E5CF809104
:102640000F01811102C01A8273C040E060E080E097
:102650000E945907F8CF30910D0181E1389F802DFC
:1026600011248983182F1F5E012F153508F004E50A
:1026700060911F0570912005809121050E94E4085A
:10268000F62EE72ED82E9981892F90E09B838A839E
:10269000FA81F01718F021E02A8347C0EA81FB8114
:1026A000EB59FD4F808190910E01892339F02D2D3A
:1026B0004F2D6E2D8A819B810E945C07EA81FB81F0
:1026C0003196FB83EA83E4CF30910D0181E1389F9D
:1026D000802D11248983182F1F5E012F153508F0D6
:1026E00004E5E0902005F090210580911F058A8384
:1026F000682F7E2D8F2D0E94E408D62EC72EB82E6F
:10270000609122059A81690F7E2D8F2D0E94E40829
:10271000F62EE72EA82EF981EF2FF0E0FB83EA8357
:102720003A813017C0F081E08A83143508F08BCFEE
:1027300080910D018F5F80930D01EA81E11123CF1C
:1027400082E08093100180910F0181111CCF7110E4
:102750001ACF83E047CFEA81FB81EB59FD4F90818F
:1027600080910E01892361F02A2D4F2D6E2D90FD51
:1027700003C02B2D4D2D6C2D8A819B810E945C07FF
:102780002A813B812F5F3F4F3B832A83C9CF9091A2
:102790000D0181E1989F802D11248983182F1F5EE0
:1027A000F12E153510F0E4E5FE2EE0902005D090D6
:1027B00021052091220500E4029F012D1124F981B9
:1027C000EF2FF0E0FB83EA833A813F1508F0ABCFAF
:1027D000EA81FB81EB59FD4F808190910E018923A5
:1027E000C9F0EA81FB81EE0FFF1FE254FE4F8081AA
:1027F00082958F7060911F05809F600D11247E2D42
:102800008D2D0E94E408462F282F672F8A819B81F7
:102810000E945C072A813B812F5F3F4F3B832A83C5
:10282000D3CF90910D0181E1989F802D1124898350
:10283000182F1F5EF12E153510F064E5F62EE0908E
:102840002005D09021052091220500E4029F012D52
:102850001124F981EF2FF0E0FB83EA833A813F15E1
:1028600008F061CFEA81FB81EB59FD4F80819091A7
:102870000E018923E9F0EA81FB81EE0FFF1FE3548B
:10288000FE4F6081069FB001112455E07595679554
:102890005A95E1F780911F05680F7E2D8D2D0E94BE
:1028A000E408462F282F672F8A819B810E945C07AE
:1028B0002A813B812F5F3F4F3B832A83CFCF90916B
:1028C0000D0181E1989F802D11248983182F1F5EAF
:1028D000012F153508F004E5F0901F05E091200563
:1028E000EA83E090210560912205669566956695DC
:1028F0008091ED049091EE040E94DA080E942B086A
:10290000805887FD8195880F282F3E2D239F212DEC
:102910001124822F6F2D7A810E94E408F62EE72E73
:10292000D82E9981892F90E09B838A83FA81F017B2
:1029300008F0B1CEEA81FB81EB59FD4F8081909187
:102940000E01892339F02D2D4F2D6E2D8A819B810B
:102950000E945C07EA81FB813196FB83EA83E6CF24
:1029600080E397E00E94F00A8A83E2CE86E097E057
:10297000F9CF8DE098E00E94FD0BF6CF8EEE97E048
:10298000FACF83ED97E00E94900BEECF87EB97E0B4
:10299000FACF84E097E0E6CF8BEF96E0E3CF82EFCB
:1029A00096E0E0CF89ED96E0DDCF8BEC96E0EBCFC3
:1029B00082EB98E0E0CF86EA97E0DDCF82E997E00E
:1029C000E2CF8EE996E00E943A0BCECF87E696E002
:1029D000FACF30910D0181E1389F802D1124898338
:1029E00031E1F32EF80E80910F01811125C0609125
:1029F000220520E1620F08F46FEF8091ED049091C1
:102A0000EE040E94DA086AE070E00E94FC2F892B35
:102A100061F40E946D08E4E58E9FC001112460916D
:102A20000E01892F90E00E947809F1E0FA8323E5F6
:102A30002F1508F07DCE07CE0F2DF4E5FF1508F415
:102A400004E53981232F30E03B832A8310E0EA81BB
:102A5000FB81E017F1074CF760910E018A819B81A1
:102A60000E9478098A819B8101969B838A83EFCF9C
:102A700030910F013A83311120C06091220520E18D
:102A8000620F08F46FEF8091ED049091EE040E94C4
:102A9000DA0865E070E00E94FC2F892B09F0D3CDA5
:102AA0000E946D08E4E58E9FC001112460910E0123
:102AB000892F90E00E94530C3BCEF0910D0181E1F3
:102AC000F89F802D1124898321E1F22EF80E0F2D1D
:102AD00024E52F1508F404E59981892F90E09B8364
:102AE0008A8310E02A813B81201731073CF031E0D6
:102AF0003A8383E58F1508F01BCEA5CD60910E01BA
:102B00008A819B810E94530CEA81FB813196FB8371
:102B1000EA83E8CF90910D0181E1989F802D1124E7
:102B20008983182F1F5E012F153508F004E5E0900A
:102B30002005F0902105E0911F05EA8360912205B0
:102B40006695669566958091ED049091EE040E94DD
:102B5000DA080E942B08805887FD8195880F682F1E
:102B60002CE0629F612D1124FA816F0F7E2D8F2D35
:102B70000E94E408F62EE72ED82E3981232F30E06C
:102B80003B832A839A81901718F0E1E0EA83CDCD48
:102B9000EA81FB81EB59FD4F808190910E018923E1
:102BA00039F02D2D4F2D6E2D8A819B810E945C075F
:102BB0008A819B8101969B838A83E4CF8AE498E093
:102BC000D1CE86E596E0CECE90910D0111E1919F98
:102BD000100D11244091ED045091EE046091EF042A
:102BE0007091F0048091670390916803A09169034C
:102BF000B0916A0384179507A607B70708F04BCD75
:102C00000E946D0894E5899F90011124E32FFF270E
:102C1000FB83EA83EB59FD4F808190910E0189235C
:102C200009F439CD0E946D0820E040E060E081FDAC
:102C300013C00E946D08082F0E946D08F0E88F9F56
:102C4000C00111247FE7790F602F809121050E9438
:102C5000E408462F282F672F8A819B810E945C07FA
:102C60002091220530E1230F08F42FEF60E1822F3D
:102C700090E00E94DA08BC0184EF91E00E94FC2FF2
:102C80008091ED049091EE04A091EF04B091F004D6
:102C9000860F971FA11DB11D809367039093680352
:102CA000A0936903B0936A03F6CC80910F01882347
:102CB00029F040E060E080E00E94590790910D010A
:102CC00081E1682E989F600C11244091ED04509191
:102CD000EE046091EF047091F00480918B03909169
:102CE0008C03A0918D03B0918E0384179507A607DE
:102CF000B70708F08AC060911F0570912005809188
:102D000021050E94E408562E472E382E0BE613E0CC
:102D10008DE791E09B838A838DEB882E81E0982E4E
:102D2000CA80DB8056017801B3E02B2EF50181913A
:102D30005F0190E0F7012081222309F46DC0232D6B
:102D4000452D642D0E945C07F6018781232D452DBA
:102D5000642D90E00E945C07F701818181937F01DF
:102D60002A94F1E0CF1AD1082110E0CFEA81FB814B
:102D7000838190E0F8012381222309F458C0232D98
:102D8000452D642D0E945C07EA81FB818481232DFF
:102D9000452D642D90E00E945C070E946D088370B1
:102DA00091E009F090E0F80193830C5F1F4F2A81B6
:102DB0003B81285F3F4F3B832A838216930609F0AD
:102DC000AFCF2091220530E1230F08F42FEF60E10F
:102DD000822F90E00E94DA08BC0188EB9BE00E9401
:102DE000FC2F8091ED049091EE04A091EF04B0913E
:102DF000F004860F971FA11DB11D80938B03909344
:102E00008C03A0938D03B0938E0331E03A8383E566
:102E1000861508F08DCC17CC20E040E060E00E94E1
:102E20005C07F601878120E040E060E092CF20E07F
:102E300040E060E00E945C07EA81FB81848120E041
:102E400040E060E0A7CF8FE496E00E947D0A8CCD41
:102E500089E496E0FACF8091F10421E0382F321B0B
:102E600008F430E0832F60E376E00E94B3097CCD64
:102E700060E376E080E0F9CF8091F10421E0382F23
:102E8000321B08F430E0832F65EF75E0EECF65EF7D
:102E900075E0F0CF8091F10421E0382F321B08F467
:102EA00030E0832F63EC75E0E0CF63EC75E0E2CFB8
:102EB0008091F10421E0382F321B08F430E0832F99
:102EC0006BEA75E0D2CF6BEA75E0D4CF8091F10464
:102ED00021E0382F321B08F430E0832F65E975E0DC
:102EE000C4CF65E975E0C6CF80910D01898381E18A
:102EF0009981989F802D11248983082F0F5EE82FD8
:102F0000F0E0FB83EA83A8E2FA2E3A813C3070F0CD
:102F10008A819B8199279B838A83FA81F83198F172
:102F200021E02A83043508F403CC8DCBEA81FB81B0
:102F3000EB59FD4F808190910E018923E9F0D090EB
:102F40002005E090210510911F0580918F0390913D
:102F500090030E944611609122058F9D100D11244F
:102F6000610F7D2D8E2D0E94E408462F282F672F9C
:102F70008A819B810E945C072A813B812F5F3F4FA2
:102F80003B832A83C2CFEA81FB81EB59FD4F8081CD
:102F900090910E01892379F060911F0570912005B1
:102FA000809121050E94E408462F282F672F8A81EF
:102FB0009B810E945C07EA81FB813196FB83EA8357
:102FC000ACCF30910D0181E1389F802D11248A838F
:102FD0008F5E89830091F1049A81892F90E09B8311
:102FE0008A83FA81FC30F0F02A813B8133273B83CE
:102FF0002A83C901880F991FFC01E354FE4F7F010A
:10300000E1EFAE2EE4E0BE2E66246394F5E05F2E81
:10301000EA81E83128F1F1E0FA832981243508F4C6
:1030200087CB11CBEA81FB81EB59FD4F80819091D9
:103030000E01892379F060911F0570912005809120
:1030400021050E94E408462F282F672F8A819B8143
:103050000E945C07EA81FB813196FB83EA83C1CF42
:10306000EA81FB81EB59FD4F808190910E0189230C
:1030700011F130901F05409020055AE0C52E55E013
:10308000D52E61EF862E64E0962E10E0882D8A19E9
:103090008017D0F020912105129F112D1124632D4E
:1030A000742D812F0E94E408462F282F672F8A81D4
:1030B0009B810E945C078A819B8101969B838A8306
:1030C00092E0E90EF11CA4CFF7014081F401818167
:1030D000481B550BF7012181F4018185281B330B17
:1030E000449FB001459F700D700D1124229FC001B7
:1030F000239F900D900D1124860F971F0E94820828
:10310000282E60912205262D620F08F46FEFF6013C
:10311000819191916F010E94DA08259C800D911D8B
:1031200011248F3F910519F010F08FEF90E08095FA
:10313000282F120F08F41FEF3FEF831A930AA6CF30
:1031400030910D0181E1389F802D11248A838F5E9B
:1031500089830091F1048A81E82EF12C3BE03E1531
:1031600008F04BC0C70199279B838A83880F991F5A
:10317000FC01E354FE4F7F0131EFA32E34E0B32E68
:103180006624639445E0542EEA81E83108F043CF89
:10319000EA81FB81EB59FD4F808190910E018923DB
:1031A00019F130901F0540902005AAE0CA2EA5E035
:1031B000DA2EB1EF8B2EB4E09B2E10E0882D8A1909
:1031C000801708F445C020912105129F112D11246C
:1031D000632D742D812F0E94E408462F282F672F1E
:1031E0008A819B810E945C078A819B8101969B83D7
:1031F0008A8392E0E90EF11CC7CFF701EB59FD4F2E
:10320000808190910E018923F9F0D09020051091D2
:10321000210590911F059A8380918F0390919003CF
:103220000E94461160912205EA81F8E28F9FE00D2D
:1032300011246E0F7D2D812F0E94E408462F282F28
:10324000672FC7010E945C072FEFE21AF20A86CFB0
:10325000F7014081F4018181481B550BF701218161
:10326000F4018185281B330B449FB001459F700DED
:10327000700D1124229FC001239F900D900D1124E9
:10328000860F971F0E948208282E60912205262D06
:10329000620F08F46FEFF601819191916F010E9426
:1032A000DA08259C800D911D11248F3F910519F09E
:1032B00010F08FEF90E08095282F120F08F41FEF89
:1032C0003FEF831A930A7ACF30910D0181E1389F45
:1032D000802D11248A838F5E89830091F1049A8165
:1032E000892F90E09B838A83880F991FFC01E35408
:1032F000FE4F7F01E1EFAE2EE4E0BE2E6624639424
:10330000F5E05F2EEA81EC3080F02A813B813327A3
:103310003B832A839A81983108F477C0E1E0EA83FD
:10332000F981F43508F404CA8EC9EA81FB81EB59AE
:10333000FD4F808190910E01892311F130901F057E
:10334000409020055AE0C52E55E0D52E61EF862E1F
:1033500064E0962E10E0882D8A198017D0F0209115
:103360002105129F112D1124632D742D812F0E9490
:10337000E408462F282F672F8A819B810E945C07D3
:103380008A819B8101969B838A8392E0E90EF11CDE
:10339000B9CFF7014081F4018181481B550BF7013A
:1033A0002181F4018185281B330B449FB001459F87
:1033B000700D700D1124229FC001239F900D900D60
:1033C0001124860F971F0E948208282E60912205E3
:1033D000262D620F08F46FEFF601819191916F0134
:1033E0000E94DA08259C800D911D11248F3F9105C4
:1033F00019F010F08FEF90E08095282F120F08F44D
:103400001FEF3FEF831A930AA6CFEA81FB81EB59A6
:10341000FD4F808190910E01892379F060911F0505
:1034200070912005809121050E94E408462F282FE5
:10343000672F8A819B810E945C078A819B8101960C
:103440009B838A8367CF20910D0181E1289F802D86
:1034500011248A838F5E89830091F1049A81892FD8
:1034600090E09B838A83880F991FFC01E354FE4FF1
:103470007F0131EFA32E34E0B32E6624639445E040
:10348000542EEA81EC3068F00A811B811127083143
:1034900008F477C081E08A839981943508F448C99B
:1034A000D2C8EA81FB81EB59FD4F808190910E01DA
:1034B000892311F130901F05409020058AE0C82E25
:1034C00085E0D82E91EF892E94E0992E10E0882D7A
:1034D0008A198017D0F020912105129F112D1124F7
:1034E000632D742D812F0E94E408462F282F672F0B
:1034F0008A819B810E945C078A819B8101969B83C4
:103500008A8392E0E90EF11CBCCFF7014081F401FF
:103510008181481B550BF7012181F4018185281B0E
:10352000330B449FB001459F700D700D1124229FF5
:10353000C001239F900D900D1124860F971F0E94AC
:103540008208282E60912205262D620F08F46FEF65
:10355000F601819191916F010E94DA08259C800DFE
:10356000911D11248F3F910519F010F08FEF90E01D
:103570008095282F120F08F41FEF3FEF831A930A4C
:10358000A6CFF801EB59FD4F808190910E01892360
:10359000F9F0E0902005F0902105F0911F05FA83E5
:1035A00080918F03909190030E94461160912205B3
:1035B0002A8138E2839F200D1124620F7E2D8F2DEA
:1035C0000E94E408462F282F672FC8010E945C073D
:1035D0000F5F1F4F5CCF70920B0180911E058370AF
:1035E00080930A010E941012B4C880911D0588239F
:1035F00051F048E050E068E170E08EE195E00E9413
:10360000C03010921D054091ED045091EE04609180
:10361000EF047091F0042FB7F89480919804909182
:103620009904A0919A04B0919B042FBF841B950B21
:10363000A60BB70B4097A105B10510F40C94C3126B
:10364000109210010C94C3128091FC029091FB0225
:10365000892B8093BC029091FA02992391F0892BD7
:103660008093BC0220E08EEB92E0FC013191CF010F
:1036700031112F5FF2E0843C9F07B9F721111092BE
:10368000FA0248E050E062EF72E08CEB92E00E94B8
:10369000F430892BA9F088E0ECEBF2E0A2EFB2E085
:1036A00001900D928A95E1F7E0919304F0919404D2
:1036B000309731F00280F381E02D8CEB92E0099598
:1036C0000895882321F00E94300F0E94241B089542
:1036D000882339F09091FC02982B9093FC020E9471
:1036E000241B08958823D1F19CEF980F913A78F428
:1036F000EEEBF2E09191891303C0DF0111971C9268
:1037000092E0E43CF907B1F70E94241B089590E28F
:10371000980F983050F4877091E001C0990F8A9506
:10372000EAF7892F0E94300FEFCF9BE5980F933077
:1037300028F490E080E00E94CE04089598E5980F68
:103740009B3128F490E080E00E94A904089593E35F
:10375000980F933118F460E00E946E100895CF9393
:10376000C82F8823B1F08CEF8C0F813A00F5EEEB77
:10377000F2E084EC92E0DF012D91C21761F08A172C
:103780009B07D1F76C2F8CEB92E00E948F040E9474
:10379000241BCF9108952191C21303C0DF0111971B
:1037A0001C928E179F07B9F70E94241BEBCF80E273
:1037B0008C0F883068F4C77021E030E001C0220F20
:1037C000CA95EAF78091FC02822B8093FC02DFCF3E
:1037D000EBE5EC0FE33040F4F0E0EC5EFE4F80816F
:1037E00090E00E94CE04D5CFE8E5EC0FEB3150F429
:1037F000F0E0EE0FFF1FE95EFE4F808191810E9495
:10380000A904C7CF83E38C0F833118F661E08C2FB6
:103810000E946E10BECF1F93CF93DF93182FD0E07E
:10382000C0E0893311F4C0E5D0E0812F0E94AF1BC6
:10383000209739F4812F0E94721BDF91CF911F9145
:1038400008958FE99FE00197F1F700C000002197EC
:10385000EFCFB0E0A0E0EFE2FCE10C945130EC01DE
:103860008AE0A82EFE012491222309F497C021307A
:1038700009F03EC031968491813031F42296FE01E8
:1038800084910E940B1C07C0823039F42296FE01FD
:1038900084910E94AF1B2196E5CF833031F42296AC
:1038A000FE0184910E94721BF6CF843009F074C02F
:1038B0002296FE01249190E080E0FE013196205393
:1038C000330B2A30310548F0019728F3EFE9FFE088
:1038D0003197F1F700C00000F7CFA89EA001A99E84
:1038E000500D1124C901840F951F2491EF01E5CFDC
:1038F000E22FF0E0E457FB4FB490822F8695869537
:10390000869590E0FC01E458FB4FE4902770F12C81
:10391000022E02C0F594E7940A94E2F731E0E32224
:10392000FF24FC01E459FB4FC490D12C022E02C0AD
:10393000D594C7940A94E2F7E1E0CE22DD24FC019D
:10394000E45AFB4F049110E002C0159507952A95A3
:10395000E2F701701127E114F10419F081EE0E94E1
:10396000AF1BC114D10419F086EE0E94AF1B8B2D42
:103970000E940B1CC114D10419F086EE0E94721B28
:10398000E114F10419F081EE0E94721B011511057A
:1039900009F481CF8CE275CFEF017DCFCDB7DEB7D3
:1039A000EAE00C946D300F931F93CF93DF93C62FF3
:1039B000D42F022FFC0185818823A9F060931C0578
:1039C0000E94830490931B0580931A05C77081E0C1
:1039D00001C0880FCA95EAF70E94681BDF91CF915A
:1039E0001F910F91089580911C05681332C080913A
:1039F0001A0590911B050E946804883C910548F5C2
:103A000010E21D0FCD17B9F080E28C0F883040F422
:103A1000C77081E001C0880FCA95EAF70E94611B58
:103A2000183048F481E09D2F977001C0880F9A9557
:103A3000EAF70E94681B802F0E940B1C183070F65A
:103A4000D77081E001C0880FDA95EAF70E94611B08
:103A5000C5CFC77081E001C0880FCA95EAF7F6CFDD
:103A6000A8E0B0E0E6E3FDE10C9450308E010F5F7A
:103A70001F4F88E0F80111928A95E9F78DE4C82E6E
:103A800081E0D82EF12CE12CAA24A394B12CF601CC
:103A900081916F018F3F09F443C0F894E82FE295BC
:103AA000EF70F0E021A18F70A50102C0440F551FF7
:103AB0008A95E2F7CA01922F982B91A392A1809543
:103AC000892382A3789400C0E5E5F1E0912C31E0F0
:103AD00021912F3F09F465C0A22FA295AF70B0E0ED
:103AE00090968C9190E02F7002C0959587952A95BD
:103AF000E2F780FD56C0832F982A330F51E0ED3551
:103B0000F50731F7F601319780818F3F11F00E9460
:103B1000E20C80EA8A95F1F7F801EE0DFF1D908224
:103B2000EFEFEE1AFE0AF8E0EF16F10409F0AFCF5E
:103B300048E050E0B80184E093E00E94F430892B23
:103B400091F188E0F801A4E0B3E001900D928A952C
:103B5000E1F781E0809303030E94830490930203C2
:103B60008093010380910103909102030E946804F5
:103B70000597E8F048E050E064E073E08EE093E001
:103B80000E94F430892BC1F088E0E4E0F3E0AEE07D
:103B9000B3E001900D928A95E1F781E01092030362
:103BA00007C080E0A9CF809103038111DBCF80E0C3
:103BB0002896EBE00C946C3080E0F0CF90910D03F0
:103BC00092FB222720F9281779F080FB92F9909335
:103BD0000D0360910C0370910D0384E090E00E944E
:103BE000EE3082E00E941F100895CF931092FC02E5
:103BF000C6E0EEEBF2E0DF018C2F1D928A95E9F72B
:103C000090E080E00E94CE0490E080E00E94A90451
:103C10001092FB020E94241BE4E3F3E0DF011D92FB
:103C2000CA95E9F710922D0310922E0310922F03DC
:103C30000E94770CCF910895AAE2B0E0E2E2FEE1A3
:103C40000C9458308BEA94E02091F100FC01219310
:103C5000CF01F4E0833B9F07B9F78091AC04833038
:103C600009F470C0B8F4813009F447C0823009F417
:103C7000B1C08091E80083FF7EC28091AB04909137
:103C8000AC049A3008F077C2E92FF0E0E65CFE4C15
:103C90000C9443308A3009F48CC08B3009F46FC027
:103CA000893039F78091AB04813219F78091AF04E4
:103CB0009091B0040297E8F68091E800877F8093A6
:103CC000E8008091E80082FF38C09091F300809175
:103CD000F200029731F48091F100813011F08630CA
:103CE00021F48091F10080939E048091E8008B770D
:103CF0008093E8000E945B03BCCF8091AB04813AC3
:103D000009F0B7CF8091E800877F8093E800809129
:103D1000AF049091B004892B61F468E08FE994E0DE
:103D200070E00E9407048091E8008B778093E800A0
:103D3000A0CF60E090E080E0F3CF8091A9048111F2
:103D4000C0CF97CF8091AB04813A09F092CF809198
:103D5000AF049091B004892B09F08BCF8091E800DB
:103D6000877F8093E8008091E80080FFFCCF8091FE
:103D70000C018093F1008091E8008E77B9CF80919B
:103D8000AB04813209F075CF8091AF049091B004FB
:103D9000892B09F06ECF8091E800877F8093E8003F
:103DA0000E945B038091AD0480930C010E94F51D7D
:103DB00060CF8091AB04813209F05BCF8091E80045
:103DC000877F8093E8000E945B038091AE0480931C
:103DD0009D044FCF8091AB04813A09F04ACF809186
:103DE000E800877F8093E8008091E80080FFFCCFA7
:103DF00080919D04BECF803899F0823809F0BBC114
:103E00008091AF048F70873008F0B5C18093E900CE
:103E10008091EB0085FB882780F91092E90006C0AD
:103E20008091A7049091A804911182609091E8007C
:103E3000977F9093E8008093F1001092F1008091B9
:103E4000E8008E7794C1882309F482C1823009F09A
:103E500092C18091AD04811185C18091AF048F70B2
:103E60002FEF280F263008F086C18093E9002091BB
:103E7000EB0020FF77C1933031F48091EB0080623A
:103E80008093EB006FC19091EB0090619093EB00F9
:103E900021E030E001C0220F8A95EAF72093EA0082
:103EA0001092EA008091EB008860EACF811163C133
:103EB0001091AD041F778091E3008078812B80936F
:103EC000E3008091E800877F8093E8000E945B0315
:103ED0008091E80080FFFCCF8091E30080688093B0
:103EE000E30082E0111183E08093A90444C180586B
:103EF000823008F040C18091AD049091AE048C3DB9
:103F000023E09207A1F583E08A838AE289834FB791
:103F1000F894DE01139620E03EE051E2E32FF0E05A
:103F200050935700E49120FF03C0E295EF703F5F8C
:103F3000EF708E2F90E0EA30C0F0C7968D939D937E
:103F40002F5F243159F74FBF8091E800877F80931E
:103F5000E8006AE270E0CE0101960E9407048091B9
:103F6000E8008B778093E80006C1C096E7CF4091C8
:103F7000AF045091B004292F33272330310509F4C1
:103F800044C078F52130310509F46FC08BE390E02F
:103F9000E7EEF3E02230310509F0EDC02091E800B2
:103FA000277F2093E8002091B1043091B20482175A
:103FB000930708F49C0140E02115310509F064C025
:103FC000411162C08091E80082FDC9CF8091A904AF
:103FD000882329F2853019F28091E80083FFF2CF1F
:103FE000BECF21323105A9F12232310509F0C3C01B
:103FF0004115510509F443C04130510509F0BBC0DA
:104000008BE790E0ECE2F3E0C9CF9927813091058E
:10401000C1F0009759F0029709F0ADC0E4E3F4E075
:10402000E4918E2F90E0E4E3F4E007C0E8E5F4E0EB
:10403000E4918E2F90E0E8E5F4E0009709F49BC04E
:10404000ADCFE6E4F4E0E4918E2F90E0E6E4F4E016
:10405000F4CF4115510571F04130510509F08BC085
:1040600089E090E0E2E1F4E099CF82E190E0E2E2E1
:10407000F4E094CF89E090E0E9EFF3E08FCF80E4C3
:1040800090E0E7EAF3E08ACF8091A904882309F45D
:1040900066CF853009F463CF8091E80083FD5FCF60
:1040A0008091E80082FD8ECF8091E80080FF84CF70
:1040B0009091F3008091F2002115310519F08830BC
:1040C000910550F041E0089709F040E08091E80048
:1040D0008E778093E80070CF44914093F100319641
:1040E000215031090196E8CF803809F044C0809111
:1040F000E800877F8093E8008091AA048093F10014
:104100009ECE811138C01091AD041230A0F580917F
:10411000E800877F8093E8001093AA040E945B0365
:10412000112311F084E005C08091E30087FDFACFF0
:1041300081E08093A90442E061EC81E00E947A036F
:1041400042E261EC82E00E947A038091A90413C0EC
:104150008091AD04813079F481E0933009F080E002
:104160008093A8041092E9008091E800877F8093F3
:10417000E8000E945B038091E80083FF0AC0809101
:10418000E800877F8093E8008091EB008062809355
:10419000EB00AA96E3E00C9474300E94F51D2FEF1B
:1041A00084E39CE0215080409040E1F700C0000093
:1041B00088E19CE00FB6F894A895809360000FBE4C
:1041C00090936000FFCFA8E0B0E0E9EEF0E20C943D
:1041D000593066EE7EEF90E080E00E94EE3060E0C5
:1041E00082E090E00E94D03060E083E090E00E94A6
:1041F000D0301092FE021092FD0260E074E184E083
:1042000090E00E94EE3060E086E090E00E94D030C6
:104210006FEF87E090E00E94D03040E050E0BA01BC
:1042200088E090E00E94E23060E084E290E00E944A
:10423000D03060E087E190E00E94D03060E08CE018
:1042400090E00E94D03060E08DE090E00E94D0309D
:1042500019821A821B821C821D821E821F8218866E
:1042600048E050E068E170E0CE0101960E94C03065
:1042700040E050E0BA0180E290E00E94E23040E08D
:1042800050E0BA018FE090E00E94E23040E050E060
:10429000BA0183E190E00E94E2302896E2E00C94BB
:1042A0007530B0E0A0E0E7E5F1E20C9451308C010C
:1042B000DC0114968C911497882309F437C221E00D
:1042C0004C9111965C91119712966C9112971396DE
:1042D0007C91139715969C910E946A11EC01FC0148
:1042E000E054FE47EC33F10508F0FFC1EC5BFE4CF7
:1042F000D80115968C910C944330882321F088E9DD
:1043000091E00E94291CF8018581882309F4E8C501
:1043100010921C05CE019057839708F0CBC584E01E
:1043200090E00E94BA3090930D0380930C03FE013D
:10433000E150F047E232F10508F014C2E058FE4CBB
:104340000C9443308823F9F284E991E00E94291CFF
:10435000DACF8823C1F280E991E00E94291CD3CFF3
:10436000882389F28CE891E00E94291CCCCF882315
:1043700051F288E891E00E94291CC5CF882319F2E8
:1043800084E891E00E94291CBECF882309F4BBCFAA
:1043900080E891E00E94291CB6CF882309F4B3CFAE
:1043A0008CE791E00E94291CAECF882309F4ABCFA3
:1043B00088E791E00E94291CA6CF882309F4A3CFA7
:1043C00084E791E00E94291C9ECF882309F49BCFAB
:1043D00080E791E00E94291C96CF882309F493CFAF
:1043E0008CE691E00E94291C8ECF882309F48BCFA4
:1043F00088E691E00E94291C86CF882309F483CFA8
:1044000084E691E00E94291C7ECF882309F47BCFAB
:1044100080E691E00E94291C76CF882309F473CFAF
:104420008CE591E00E94291C6ECF882309F46BCFA4
:1044300088E591E00E94291C66CF882309F463CFA8
:1044400084E591E00E94291C5ECF882309F45BCFAC
:1044500080E591E00E94291C56CF882309F453CFB0
:104460008CE491E00E94291C4ECF882309F44BCFA5
:1044700088E491E00E94291C46CF882309F443CFA9
:1044800084E491E00E94291C3ECF882309F43BCFAD
:1044900080E491E00E94291C36CF882309F433CFB1
:1044A0008CE391E00E94291C2ECF882309F42BCFA6
:1044B00088E391E00E94291C26CF882309F423CFAA
:1044C00084E391E00E94291C1ECF882309F41BCFAE
:1044D00080E391E00E94291C16CF882309F413CFB2
:1044E0008CE291E00E94291C0ECF882309F40BCFA7
:1044F00088E291E00E94291C06CF882309F403CFAB
:1045000084E291E00E94291CFECE882309F4FBCEB0
:1045100080E291E00E94291CF6CE882309F4F3CEB4
:104520008CE191E00E94291CEECE882309F4EBCEA9
:1045300088E191E00E94291CE6CE882309F4E3CEAD
:1045400084E191E00E94291CDECE882309F4DBCEB1
:1045500080E191E00E94291CD6CE882309F4D3CEB5
:104560008CE091E00E94291CCECE882309F4CBCEAA
:1045700088E091E00E94291CC6CE882309F4C3CEAE
:1045800084E091E00E94291CBECE882309F4BBCEB2
:1045900080E091E00E94291CB6CE882309F4B3CEB6
:1045A0008CEF90E00E94291CAECE882309F4ABCE9C
:1045B00088EF90E00E94291CA6CE882309F4A3CEA0
:1045C00084EF90E00E94291C9ECE882309F49BCEA4
:1045D00080EF90E00E94291C96CE882309F493CEA8
:1045E0008CEE90E00E94291C8ECE882309F48BCE9D
:1045F00088EE90E00E94291C86CE882309F483CEA1
:1046000084EE90E00E94291C7ECE882309F47BCEA4
:1046100080EE90E00E94291C76CE882309F473CEA8
:104620008CED90E00E94291C6ECE882309F46BCE9D
:1046300088ED90E00E94291C66CE882309F463CEA1
:1046400084ED90E00E94291C5ECE882309F45BCEA5
:1046500080ED90E00E94291C56CE882309F453CEA9
:104660008CEC90E00E94291C4ECE882309F44BCE9E
:1046700088EC90E00E94291C46CE882309F443CEA2
:1046800084EC90E00E94291C3ECE882309F43BCEA6
:1046900080EC90E00E94291C36CE882309F433CEAA
:1046A0008CEB90E00E94291C2ECE882309F42BCE9F
:1046B00088EB90E00E94291C26CE882309F423CEA3
:1046C00084EB90E00E94291C1ECE882309F41BCEA7
:1046D00080EB90E00E94291C16CE882309F413CEAB
:1046E0008CEA90E00E94291C0ECEFC01E851FC47A8
:1046F000E730F10508F007CEEE55FE4C0C94433040
:1047000026E241EE61EEC8010E94D31C8091F102C5
:10471000877061F0D80115968C91882339F08091CB
:104720000D0382FF03C082E00E941F10CDB7DEB7E9
:10473000EAE00C946D3027E245EE65EEE4CF26E228
:1047400041EE60EEE0CF27E245EE64EEDCCF26E2FC
:1047500041EE62EED8CF27E245EE66EED4CF28E2F6
:1047600041E0EBCF80910C03816080930C0395C0F6
:1047700080910D03886080930D038FC080910C039E
:104780008260F3CF80910C038460EFCF80910C03A3
:104790008860EBCF80910D038160EDCF80910D0398
:1047A0008260E9CF80910C038061DFCF80910C03A0
:1047B0008062DBCF80910C038064D7CF0E94F51D0F
:1047C00080910C038068D1CF80910C038C60CDCF99
:1047D00080910D038360CFCF80910C038E7FC5CF76
:1047E00080910D03877FC7CF80910C038D7FBDCF54
:1047F00080910C038B7FB9CF80910C03877FB5CF5D
:1048000080910D038E7FB7CF80910D038D7FB3CF45
:1048100080910C038F7EA9CF80910C038F7DA5CF53
:1048200080910C038F7BA1CF0E94F51D80910C031A
:104830008F779BCF80910C03837F97CF80910D035F
:104840008C7F99CF80910C0382FB992790F921E00E
:10485000922790FB82F990FB83F987CF80910D031B
:10486000982F909591708E7F892B90FB81F983CF43
:1048700090910C03892F8F7B96FF806476CF0E94E6
:10488000F51D90910C03892F97FB87F980586DCF08
:1048900061E08EE090E00E94D03060910C03709156
:1048A0000D0384E090E00E94EE300E94F51D2ECFB3
:1048B00060E0EFCF90910C03892F8F7E94FF806191
:1048C00054CF90910C03892F8E7F90FF81604DCF44
:1048D00090910D03892F877F93FF88604CCF809143
:1048E000C40281110FC089E2EEEBF2E024EC32E069
:1048F0009191891303C0DF0111971C922E173F0776
:10490000B9F7EBC285E3F0CF80911E0591E08927CE
:1049100080931E051092100180911D058160809387
:104920001D05F4CE40E855E06AE875E00E940005F8
:10493000EDCE4AE855E060E875E0F8CF4CE655E08A
:1049400066E775E0F3CF46E755E06CE675E0EECF3D
:1049500042E555E06FE575E0E9CF4FE555E062E5EA
:1049600075E0E4CF48E355E065E475E0DFCF45E46A
:1049700055E068E375E0DACF4CE155E06AE275E0B6
:10498000D5CF4AE255E06CE175E0D0CF81E00E94DE
:10499000C002BCCE85E0FBCF8DE0F9CF82E1F7CF3E
:1049A0000E94F51DFFEF24E33CE0F1502040304031
:1049B000E1F700C000000E94EC116FEF7FEF90E084
:1049C00080E00E94EE300E94CD2080910D0382FB9A
:1049D000882780F991E089270E94DE1DF8018581F2
:1049E000C081D181882309F44DC0CE010E94410FBE
:1049F000F82E682FCE010E94EF0FBE018F2D0E946E
:104A0000DE0D0E94120ED82FC92FA82ED8011596A0
:104A1000CC9015971696BC90B2943FE0B32280914B
:104A2000F1028770F1F0EC2CCC20E1F0892F807F2F
:104A3000803451F080E28D0F883098F0B11004C0BE
:104A4000892F807E803269F080910D0382FF09C03A
:104A500082E00E941F108091F1028770EE24E3949F
:104A60008111E12CDC2ED2942FE0D222BBE0BD15C7
:104A700008F46DC0ED2DF0E0E755FE4C0C9443308A
:104A800080E0AACFCE010E94A90FF82EB6CFEC2F5E
:104A9000EF70FE2EC07F19F0F29490EFF922CC2037
:104AA000B9F0FF2069F080E28D0F883010F0A1107E
:104AB00009C08091FC02F82AF092FC020E94241B9B
:104AC0008D2F43C08091FB02F82AF092FB02F6CFB3
:104AD0008D2F0E94721BFF20D1F1D05ED83010F0D4
:104AE000A11004C08F2D0E94300F06C0F094809159
:104AF000FB02F822F092FB020E94241B28C0FC2F2C
:104B0000FF70FF2EC07FC03219F0F29480EFF822C0
:104B1000AA2059F021E0A21609F479C0CC2009F4AA
:104B200085C0BB2009F447C0CBCF80910D0382FD27
:104B30003EC0CC20B1F1FF2039F08091FC02F82A70
:104B4000F092FC020E94241B80E00E94AF1BED2D1E
:104B5000E850FF0B349710F40E94F304EE20B1F0FC
:104B60008091F10280FD12C0D80115961C928695A5
:104B7000869586950E943610C8010E945121809129
:104B8000F1028695869586950E940D1020E0F80129
:104B90004081518162817381848195810E946A1173
:104BA000C5CD80E00E94721BFF2089F29BCFCC20F4
:104BB000A1F0B11004C08F2D0E94681BC8CF31E056
:104BC000B312C5CF8091FA029F2D9823F91609F4EC
:104BD000BECFF82AF092FA02BACFB110B8CF8F2D1B
:104BE0000E94611B9091FA028F2D892329F08F2D4D
:104BF000809589238093FA028091C5029F2D982386
:104C000009F4A5CFF094F822F092C502A0CFCC20F1
:104C100029F085E08B1508F49ACFCDCF94E09B1551
:104C200008F495CF8F2D0E94611B91CFBB20D1F34B
:104C3000A9E3AA1209C0BFEFE7EEF3E0B150E040EC
:104C4000F040E1F700C000008D2F0E94721B7FCF63
:104C50008C2F86958695837069F0813009F077CF27
:104C60008D2F9C2F9370C11002C080E090E00E94B5
:104C7000A9046DCF8D2F9C2F9370C11002C080E0CE
:104C800090E00E94CE0463CF6C2D8D2F0E946E1099
:104C90005ECF8C2F837009F03FC0C11058CF4D2FCD
:104CA000429546954770440F440F2D2F2F7030E0EA
:104CB000042E02C0220F331F0A94E2F790E080E036
:104CC000D4FF09C08FE090E002C0880F991F4A9579
:104CD000E2F780959095C695C695C370C23099F05D
:104CE00078F44091FD025091FE02C13039F0822BE0
:104CF000932B842395230E94461029CF242B352BF8
:104D0000822B932BF8CF822B932B2091FD02309195
:104D1000FE0282279327EFCF8695CC2011F08C2FAF
:104D20008170882309F413CF4D2F42954695477023
:104D3000440F440F2D2F2F7030E0042E02C0220F9D
:104D4000331F0A94E2F790E080E0D4FF09C08FE0BF
:104D500090E002C0880F991F4A95E2F780959095E0
:104D6000C695C695C370C23099F078F440918F0310
:104D700050919003C13039F0822B932B84239523DB
:104D80000E940810E4CE242B352B822B932BF8CFD6
:104D9000822B932B20918F033091900382279327AE
:104DA000EFCFCF70CC2029F08C2F0E9436108D2FA2
:104DB00003CF8D2F0E94611B8C2F0E940D10C7CE38
:104DC0008D2F22EFA21699F12A1570F030EFA3165D
:104DD000D1F091EFA91691F0CC2009F45BC0B1108D
:104DE0006FCE8C2F8F7127C0A3EFAA1639F1B4EFC5
:104DF000AB12F2CF80910D0382FD2EC08C2F8F71EC
:104E0000CC20D9F218C0CC2069F0E4E0EB1508F40E
:104E10009ECECF7181E090E002C0880F991FCA95A5
:104E2000E2F7B8CFF5E0FB1508F491CEF2CF8C2F66
:104E30008F71C110C2CF0E94361089CE90E080E001
:104E4000CC2009F49DCFCF7181E090E002C0880FA3
:104E5000991FCA95E2F794CFCC2089F0CF718C2F9F
:104E60000E94361080910D0382FF07C028E0C29F88
:104E7000C001112483608093F1028C2FDCCF81E08C
:104E80000E941F1031E03B1508F061CE82E00E94C5
:104E90001F105DCEBB2059F0893309F0D5CE8FEFBE
:104EA00097EEA3E081509040A040E1F7CBCE8C2F4D
:104EB0008F7183CFC631FCE7DF0729F58091FC02B3
:104EC0008A7A91E009F490E09093C40269E281113A
:104ED00065E38CEB92E00E948F040E94241B16CCA9
:104EE000C6312CE7D20709F4FACC8091FC02827219
:104EF000FE01E052F847E531F10508F06FCDEB54C3
:104F0000FE4C0C944330C3303CE7D30709F455CD35
:104F100050F4C1159CE7D90709F442CDC130DC47F4
:104F200009F451CD5BCDCB35BCE7DB0709F4A8CD47
:104F3000CC35ECE7DE0709F448CDCA35DC4709F08B
:104F40004DCD81E049CDCF93DF938091F002807FFA
:104F500009F04DC08091EF02882309F448C0E09128
:104F6000EC045091B304C091EB02D091EA0260913D
:104F7000EC027091ED0247E05E17C9F18E2F90E0D0
:104F8000E49FF0011124EC54FB4F2481222391F182
:104F9000489FF001499FF00D1124DF01AC54BB4F35
:104FA00011962C9111972C1325C02C912D1322C0F2
:104FB00015962C91159721111DC012962D913C919B
:104FC000261B370B283C3105A8F48091F0028F7026
:104FD00080618093F002E654FB4F80818F70806186
:104FE00080838AEE92E00E9451210E94370FDF9168
:104FF000CF910895FC013196E770BECFA4E1B0E0F7
:10500000E4E0F8E20C944F308C0186E0F801DE0118
:105010001F9601900D928A95E1F7F8018481E58051
:105020009AEEA92E92E0B92E9091EE02911128C02D
:10503000882319F1EE20F1F0C8010E944B10F82EE0
:105040008823C1F087E0F801D50101900D928A957F
:10505000E1F78091EE02813031F48091EA02909183
:10506000EB020E94750F0E94A3278F2D6496ECE03F
:105070000C946B30C8010E945121FF24F394F5CFAA
:10508000D080C18082809380F090EF022091EC026A
:105090003091ED02A401421B530BFF2009F4D9C04B
:1050A000483C510508F092C08823F9F29091EB0238
:1050B0008091F002282F207F09F056C0C91214C039
:1050C0009091EA02D91210C0E11048C08F7080613F
:1050D0008093F0028AEE92E00E9451218091F002CA
:1050E000F8018683F12CC1CFE11038C06C2D8D2DD5
:1050F0000E94D9026C2D8D2D0E94D902E82E8111BB
:10510000F1CFDF86C88A8F8598890E94750F292F75
:1051100022952F70243058F49F70223088F0992304
:1051200099F0F8019681907F79F4FE2C9ECF2A5F4A
:105130002F70223068F0C8010E945121EF2CF5CF6A
:10514000992311F0882389F3805E883070F3F3CFC0
:10515000803F58F3815F833070F7E7CF8091F00292
:1051600081608093F002BECFC91207C09091EA021D
:10517000D91203C0EE2009F48DC0C8010E944B1063
:10518000882309F477CFEE2009F474CF8091F002E0
:10519000803288F02091EA023091EB02398728872B
:1051A0009B868A869091EE029C871D868E87CE0113
:1051B00008960E94512187E0F801AAEEB2E0019022
:1051C0000D928A95E1F70E94A32757CF9091F002A4
:1051D000292F207F51F48AEE92E00E94512187E02E
:1051E000F50111928A95E9F77DCF882309F43DCF27
:1051F0008091EB028C1110C08091EA02D8120CC091
:10520000E1100AC09683C8010E94512187E0F50190
:1052100011928A95E9F729CFC8010E944B10882383
:1052200009F428CFEE2009F425CF8091F0028032D6
:1052300010F22091EA023091EB023A8329839C829A
:105240008B829091EE029D831E828F83CE01019608
:10525000B0CF483C5105D0F6882309F40ECFFE2C80
:10526000EE2009F407CF8091EB028C1120C08091D1
:10527000EA02D8121CC08091F00280FD0FC0982F66
:10528000907F61F08683903F31F0982F907F905F00
:105290008F70892B8683C8010E94512187E0F80115
:1052A000AAEEB2E001900D928A95E1F7DECEC80138
:1052B0000E944B1081117FCF8091F002816080931A
:1052C000F002C8010E945121D0CEABE1B0E0EBE684
:1052D000F9E20C9457304E8B5F8B688F798F8A8FF1
:1052E0009B8F192F91111092FB021D8A86E0FE01FF
:1052F0007696DE011F9601900D928A95E1F70A8D50
:10530000002341F021E04F85588969897A89C801D5
:105310000E946A110B8B1C8B87E0FE013F96DE0119
:10532000189601900D928A95E1F7CE0108960E9499
:10533000FE2781110CC087E0FE013896DE01119630
:1053400001900D928A95E1F78C8581110BC017E0D1
:105350008091EC049091B304891331C06B96E4E022
:105360000C9473302091B30430E0C901019687702A
:1053700099274091EC044817190699F097E0929FFD
:10538000D001939FB00D1124AC54BB4FFE01319658
:1053900001900D929A95E1F78093B3040E94370F24
:1053A000D6CF0E94F51D1092B3041092EC0487E052
:1053B000EAEEF2E0DF011D928A95E9F7C8CF819FFE
:1053C000C00111248C549B4F0E94FE27882331F288
:1053D0008091EC0490E00196877099278093EC040B
:1053E000B7CFA6E0B0E0E7EFF9E20C9457300E94A7
:1053F00083048C018091FF02909100038017910734
:1054000081F019821A820E948304682F49815A818F
:10541000792F80E090E00E946529109300030093AB
:10542000FF022696E4E00C9473301F920F920FB6A1
:105430000F9211242F933F934F935F936F937F931A
:105440008F939F93AF93BF93CF93DF93EF93FF938C
:10545000D091E900DF708091EC00C82FC17080FD11
:10546000C0E81092E9008091F000877F8093F000FF
:1054700078940E941C1E1092E9008091F0008860D0
:105480008093F000CD2BCF70C093E900FF91EF9196
:10549000DF91CF91BF91AF919F918F917F916F914C
:1054A0005F914F913F912F910F900FBE0F901F90E2
:1054B00018951F920F920FB60F9211242F933F93BE
:1054C0004F935F936F937F938F939F93AF93BF930C
:1054D000EF93FF938091E10082FF09C08091E20089
:1054E00082FF05C08091E1008B7F8093E100809175
:1054F000DA0080FF24C08091D80080FF20C0809116
:10550000DA008E7F8093DA008091D90080FF9DC001
:1055100080E189BD82E189BD09B400FEFDCF81E053
:105520008093A90480919C04811109C00E940B03FF
:105530000E94AC038091E20084608093E20080913D
:10554000E10080FF17C08091E20080FF13C08091CE
:10555000E2008E7F8093E2008091E2008061809380
:10556000E2008091D80080628093D80019BC85E069
:105570008093A9048091E10084FF2BC08091E20018
:1055800084FF27C080E189BD82E189BD89B5982F5C
:10559000917080FFFBCF8091D8008F7D8093D800E1
:1055A0008091E1008F7E8093E1008091E2008F7E08
:1055B0008093E2008091E20081608093E20080911C
:1055C000AA04882309F447C084E08093A904809149
:1055D000A9048091E10083FF27C08091E20083FF4E
:1055E00023C08091E100877F8093E10082E0809377
:1055F000A9041092AA048091E1008E7F8093E100BB
:105600008091E2008E7F8093E2008091E2008061D1
:105610008093E20042E060E080E00E947A038091A3
:10562000F00088608093F000FF91EF91BF91AF91FF
:105630009F918F917F916F915F914F913F912F91AA
:105640000F900FBE0F901F90189519BC1092A904CF
:1056500010929C0474CF8091E30087FD93E09093B7
:10566000A904B5CF78941F921FB61F9211248F936F
:105670009F93AF93BF938091980490919904A091C8
:105680009A04B0919B040196A11DB11D80939804CA
:1056900090939904A0939A04B0939B04BF91AF9107
:1056A0009F918F911F901FBE1F9018951F921FB63C
:1056B0001F9211248F939F93AF93BF938091970470
:1056C000811113C08091980490919904A0919A043B
:1056D000B0919B044196A11DB11D809398049093B5
:1056E0009904A0939A04B0939B04BF91AF919F91AA
:1056F0008F911F901FBE1F901895CDB7DEB7A7974B
:105700000FB6F894DEBF0FBECDBF85B7806885BFEA
:1057100085B7806885BF84B7877F84BF0FB6F8944C
:10572000A89580916000886180936000109260006D
:105730000FBE80E890E00FB6F894809361009093DC
:1057400061000FBE80EE9CE09093BB028093BA0292
:105750000E940B030E94AC038091E200846080935E
:10576000E20078948091A9048823A1F01091E900C7
:105770001F709091EC00892F817090FD80E8182BAC
:105780001092E9008091E80083FD0E941C1E1F70AA
:105790001093E90082E084BD93E095BD9AEF97BD38
:1057A00080936E0084E08093270321E7A22E21E0FE
:1057B000B22E4DE651E08A01950161E070E0D90119
:1057C0008D919D01E82FE295EF70F0E0D1A08F70F0
:1057D0007B0101C0EE0C8A95EAF79E2D90959D21E4
:1057E00091A382A18E2982A3F80181918F01E82FD4
:1057F000E295EF70F0E0D1A08F707B0101C0EE0C5C
:105800008A95EAF79E2D90959D2191A382A18E29DC
:1058100082A3A557B14099F68FE891E00197F1F77F
:1058200000C000001091270368E273E0FB018E2F97
:10583000861B811708F45EC00DE411E095E5E92EA2
:1058400091E0F92EF80181918F018F3F11F00E94B4
:10585000E20CE016F106B1F705E511E08DE5E82E62
:1058600081E0F82ED8018D918D018F3F11F00E94BB
:10587000E20CE016F106B1F788E0EEE0F3E0DF01BC
:10588000282F1D922A95E9F7E4E0F3E0DF011D924D
:105890008A95E9F790E080E00E94BA30863E9E4FFC
:1058A00011F00E94E32082E090E00E94B2308093E9
:1058B000160384E090E00E94BA3090930D03809329
:1058C0000C030E94301DEFEFF6E721E0E150F040BD
:1058D0002040E1F700C000000E94301D80910E03BF
:1058E00080FF31C06FEF7FEF90E080E00E94EE30EC
:1058F0000E94EC11D5012D915D01822F82958F7050
:1059000090E0DC0190968C9190E02F7002C095950C
:1059100087952A95E2F78170DA019D91AD01292FD3
:1059200022952F7030E0D90190962C9130E09F7035
:1059300002C0359527959A95E2F790E020FD92E018
:10594000892B819374CF83E090E00E94B23090E085
:105950000E9446101092F1048FEF9FEF90930B0579
:1059600080930A0590930D0580930C0590930F0585
:1059700080930E0590931105809310059093130565
:105980008093120590931505809314059093170545
:1059900080931605909319058093180510923A0389
:1059A000909354038093530390935603809355032D
:1059B000909358038093570390935A03809359030D
:1059C00090935C0380935B0390935E0380935D03ED
:1059D0009093600380935F039093620380936103CD
:1059E00090E080E00E94BA30863E9E4F21F00E94F7
:1059F000E3200E94371281E080931D0548E050E0CB
:105A000068E170E08EE195E00E94A23010921D05E1
:105A100080911E058C7F11F40E94371280E091E086
:105A200090939404809393048091A90400E4F02E51
:105A300000E112E1853009F4F1C00E94301D17E148
:105A4000212E13E0312EEEE0F3E0FEA3EDA3DF0103
:105A5000F10191918D9123E0EF31F20709F4E8C053
:105A60009817B9F3BDE78B2EB1E09B2EE12CADA1C9
:105A7000BEA1DD90BEA3ADA3F10161901F016D1425
:105A800009F489C06D242401C12C77247394872DD7
:105A9000862109F475C0F72CFD20CF8EE8A20E9464
:105AA00083049AA389A3F1E0FBA391E0F11001C064
:105AB00090E09CA34F8D58A169A17AA18BA10E946F
:105AC0006529109291031092920310929303109201
:105AD0009403FF2041F0D2018C91F12C8F3F19F0FB
