:100000000C9407030C943F030C943F030C943F03A0
:100010000C943F030C943F030C943F030C943F0358
:100020000C943F030C943F030C94002B0C94BC2ABB
:100030000C94FD2B0C943F030C943F030C943F0352
:100040000C943F030C943F030C943F030C943F0328
:100050000C943F030C94D92B0C943F030C943F0356
:100060000C943F030C943F030C943F030C943F0308
:100070000C943F030C943F030C943F030C943F03F8
:100080000C943F030C943F030C943F030C943F03E8
:100090000C943F030C943F030C943F030C943F03D8
:1000A0000C943F030C943F030C943F030501090299
:1000B000A10185020901A1000509190129081500FE
:1000C0002501950875018102050109300931158165
:1000D000257F95027508810609381581257F9501D0
:1000E00075088106050C0A38021581257F95017572
:1000F000088106C0C005010980A101850319012AF4
:10010000B700150126B700950175108100C0050CD8
:100110000901A101850419012AA002150126A002E6
:10012000950175108100C00660FF0961A101096297
:10013000150026FF00952075088102096315002629
:10014000FF00952075089102C005010906A101056F
:100150000719E029E7150025019508750181029529
:1001600001750881010507190029FF150026FF0008
:100170009506750881000508190129059505750181
:100180009102950175039101C0000000000000007C
:10019000000000000000000000000000000000005F
:1001A000000000000000000000000000007E0F00C2
:1001B000D4FFFFFFC700000078000000000000002F
:1001C000002A2B28000000000000000000000000B2
:1001D0000000000029000000002C1E3420212224F1
:1001E000342627252E362D3738271E1F202122237F
:1001F0002425263333362E37381F04050607080911
:100200000A0B0C0D0E0F10111213141516171819D6
:100210001A1B1C1D2F3130232D3504050607080934
:100220000A0B0C0D0E0F10111213141516171819B6
:100230001A1B1C1D2F3130354C0001010101010139
:10024000010101020202020202020202030303038D
:10025000030303030404040404040405050505055D
:10026000060606060607070707070808080809091B
:1002700009090A0A0A0B0B0B0C0C0C0D0D0D0E0EC6
:100280000E0F0F0F10101111111212131314141559
:100290001516161717181819191A1A1B1B1C1D1DCD
:1002A0001E1E1F2020212222232424252626272823
:1002B00029292A2B2C2D2D2E2F3031323233343553
:1002C000363738393A3B3C3D3E3F40414243444556
:1002D000464748494A4C4D4E4F5051535455565835
:1002E000595A5B5D5E5F616264656668696B6C6DDF
:1002F0006F7072737577787A7B7D7E808283858755
:10030000888A8C8E8F91939596989A9C9EA0A2A392
:10031000A5A7A9ABADAFB1B3B5B7BABCBEC0C2C497
:10032000C6C9CBCDCFD1D4D6D8DBDDDFE2E4E7E957
:10033000EBEEF0F3F5F8FAFDFF29431E001F002055
:1003400000210022002D0034002B0014001A0008A8
:1003500000150017002F005200E0000400160007EF
:100360000009000A0050005100E1001D001B0006BA
:1003700000190005242C412C412E002300240025C7
:1003800000260027002A00000030001C0018000C86
:100390000012001300310000004F000B000D000E92
:1003A000000F00330028000000352811001000362F
:1003B0000037003800E500000000003A003B003C38
:1003C000003D003E000000000000000000000000B2
:1003D00000000000002602270200000000000000CC
:1003E000000000000000000000000000000000000D
:1003F00000000000002C412C4100003F0040004163
:1004000000420043004C000000000000000000001B
:1004100000000000003400000000000000000000A8
:10042000000000520000000000000000000000007A
:1004300000500051004F00000000000000000000CC
:1004400000000000000000000000000000000000AC
:10045000000000000000000000000000000000009C
:10046000000000000000000000000000000000008C
:10047000000000000000000000000000000000007C
:10048000000000000000000000000000000000006C
:10049000000000000000000000000000000000005C
:1004A000000000000000000000000000000000004C
:1004B000000000000000000000294321782278009D
:1004C0000000000000000000002078000000000094
:1004D000000000000000000000000000000000001C
:1004E000000000000000000000000000000000000C
:1004F00000000000000000000000000000000000FC
:10050000000000000000000000000023782578278C
:100510007829780000000000000000247826782860
:10052000782A7800000000000000000000000000B1
:10053000000000000000000000DA00D900DA00D955
:1005400000DA00D900DA00D9000100010001000141
:100550000001000100010001000100010001000193
:100560000001000100010001000100010001000183
:1005700000010001000100010009025B000301000D
:10058000A0FA090400000103010100092111010082
:10059000012240000705810308000109040100024F
:1005A0000300000009211101000122220007058239
:1005B00003200001070503032000010904020001D4
:1005C00003000000092111010001227B00070584BE
:1005D0000320000112010002000000088488930833
:1005E00000010102000110036F006E00740068003A
:1005F00065003100350000001003680061007900DB
:1006000061007300680069000000040309041124FC
:100610001FBECFEFDAE0DEBFCDBF04B603FE18C0C9
:100620008091290590912A05A0912B05B0912C0568
:100630008730904BA740B04B59F410922905109287
:100640002A0510922B0510922C05E0E0F8E309959D
:1006500012E0A0E0B1E0E2E7F8E602C005900D92FA
:10066000A83CB107D9F725E0A8ECB2E001C01D9283
:10067000A932B207E1F70E94242C0C94A0330C9409
:100680000000482F2091F0049091B70457E02913FF
:1006900002C080E0089530E0529FF001539FF00DBA
:1006A0001124E854FB4F8181681306C080814813F0
:1006B00003C085818111EECF2F5F3F4F2770E7CFB9
:1006C000E8EDF0E080818E7F80831092E20010924E
:1006D000DA001092E100A0EEB0E08C9181608C9382
:1006E00080818F77808319BCA7EDB0E08C918E7FDD
:1006F0008C9380818F7E80831092A0040895209136
:10070000E4003091E50095E6A9012091EC00822FEC
:10071000817020FF06C08091E80080FF06C080E065
:1007200008952091E80022FD1AC08091AD0488232D
:1007300089F0853089F08091EB0085FD0FC0209114
:10074000E4003091E50042175307F9F29150E1F6C9
:1007500084E0089582E0089583E0089581E008959B
:100760008091AF0487FF13C08091E80082FF06C02C
:100770008091E8008B778093E80004C08091AD04FD
:100780008111F2CF08958091AD048823D9F380912F
:10079000E80080FFF8CF8091E8008E77ECCF982FAB
:1007A0009093E900242F762F50E0891731F0709153
:1007B000EC002091ED005091F00021FD07C09F5FFB
:1007C000973071F78093E90081E008953091EB0054
:1007D0003E7F3093EB003091ED003D7F3093ED0094
:1007E0003091EB0031603093EB007093EC0020937C
:1007F000ED005093F0002091EE0027FDE0CF80E067
:100800000895B0E0A0E0E7E0F4E00C94E932C8ED30
:10081000D0E088818F7E8883E7EDF0E08081816081
:10082000808384E082BF81E08093A00488818E7FF2
:10083000888302EE10E0F80110821092DA0081EE57
:10084000C82ED12CF601108288818F778883888109
:100850008068888388818F7D888319BC1092AD045D
:100860001092AE041092AC041092AB0490EEE92EFC
:10087000F12CF70180818B7F808388818160888360
:1008800042E060E080E00E94CF03F60180818E7F2D
:100890008083F8018081816080838081886080838B
:1008A000F70180818E7F8083888180618883CDB7C6
:1008B000DEB7E8E00C940533FC018091B50490911B
:1008C000B60486179707A0F06115710529F4909179
:1008D000E8009E779093E80090E06115710551F46F
:1008E000911108C08091E80082FF34C080E0089533
:1008F000BC01F2CF8091AD048823C1F18530C1F1F4
:100900008091E80083FD30C08091E80082FDEACF4D
:100910008091E80080FFE1CF8091F3002091F20008
:10092000382F6115710519F02830310558F091E024
:100930002830310509F090E02091E8002E772093CF
:10094000E800CBCF81918093F100615071092F5F56
:100950003F4FE7CF8091AD04882341F0853041F0CF
:100960008091E80083FFBECF81E0089582E0089582
:1009700083E008958091A20408959C014FB7F894F4
:1009800080919C0490919D04A0919E04B0919F043D
:100990004FBF821B930B08952FB7F89460919C046E
:1009A00070919D0480919E0490919F042FBF0895A3
:1009B0002FB7F89480919C0490919D04A0919E047F
:1009C000B0919F042FBF08959C01FC0132969FEFC8
:1009D00080E04191461751F09F3F19F4411101C049
:1009E000982F8F5F8630A9F79F3F09F40895290F4C
:1009F000311D97FD3A95F90162830895A3E0B0E0B7
:100A0000E4E0F5E00C94EF322091990430919A04DF
:100A100028173907A1F090939A0480939904E091E4
:100A20009704F0919804309751F024E029839B8338
:100A30008A830680F781E02DCE01019609952396E1
:100A4000E2E00C940B33A3E0B0E0E9E2F5E00C94B3
:100A5000EF32209195043091960428173907A1F0C0
:100A60009093960480939504E0919704F0919804F4
:100A7000309751F023E029839B838A830680F78196
:100A8000E02DCE01019609952396E2E00C940B33FC
:100A9000E0919704F0919804309729F00190F0814B
:100AA000E02D0995089580E00895FA01811101C0B3
:100AB000FB0109950895E9E9F3E0818360834283AE
:100AC000339694E0E539F907C1F70895FC01EE0F7C
:100AD000FF1FE80FF91FE756FC4F61834083228315
:100AE0000895E5EFF4E0248132E0231B08F420E0D0
:100AF0002483809198038160809398030895E5EFA3
:100B0000F4E0248132E0230F08F42FEF2483809156
:100B1000980381608093980308959091F5049370F1
:100B200071F08093F6046093F704493C08F048ECB8
:100B30004093F80480919803822B80939803089542
:100B4000E5EFF4E0438122E0421B08F440E08181BC
:100B500021E0628190E00E948D050895E5EFF4E0C8
:100B6000438122E0420F08F44FEF818121E062814E
:100B700090E00E948D050895E5EFF4E0628122E0A7
:100B8000621B08F460E0818121E0438190E00E94D3
:100B90008D050895E5EFF4E0628122E0620F08F42C
:100BA0006FEF818121E0438190E00E948D050895DF
:100BB000E5EFF4E0818121E0438162818250990B6D
:100BC0000E948D050895E5EFF4E0818190E021E039
:100BD0004381628102960E948D0508959091F504EB
:100BE000937061F081110BC094609093F5041092A2
:100BF0000C0180919803862B8093980308958E3280
:100C000010F0946BF2CF880F880F982BEECF809165
:100C1000F50486958695815009F48DE261E00E9485
:100C2000EE0508958091F504869586958F5F8E3246
:100C300008F081E061E00E94EE050895EF92FF92D6
:100C40000F939701201B31092F3F310519F010F048
:100C50002FEF30E02095382F320F08F43FEF832F2D
:100C60000F91FF90EF900895EF92FF920F939701ED
:100C7000201B31092F3F310519F010F02FEF30E024
:100C8000322F3095482F430F08F44FEF842F620F17
:100C90000F91FF90EF900895EF92FF920F93972F8F
:100CA000093438F4B701601B71096F3F710519F001
:100CB00010F06FEF70E0485F5F4F4131510540F039
:100CC000A901485F5F4F4131510510F06FEF70E0AF
:100CD0006095482F460F08F44FEF842F37FF02C06E
:100CE0002D5F3F4F35952795359527956091F604F3
:100CF000620F792F0F91FF90EF900895EF92FF927E
:100D00000F931F930E0D1F2D111DF90137FF03C007
:100D1000F195E195F10924E0EE0FFF1F2A95E1F727
:100D2000EF3FF10519F014F0EFEFF0E09A0157FFF3
:100D300003C031952195310994E0220F331F9A9514
:100D4000E1F72E173F070CF4F901E00FF11FEF3F19
:100D5000F10519F010F0EFEFF0E0E095282F3E2FAD
:100D6000230F08F42FEF822F1F910F91FF90EF9028
:100D70000895EF92FF920F93970195E0099F200D40
:100D8000311D11242F3F310519F010F02FEF30E005
:100D90002095382F320F08F43FEF832F0F91FF90EB
:100DA000EF90089522E8241B08F420E0620F0895D4
:100DB0004095282F429F412D1124842F0895E42F20
:100DC000F0E0EE0FFF1FE453FE4F9081921B97FD62
:100DD0009195292F38E1239F212D1124620F089529
:100DE0000F931F9310E0F801EE0FFF1FE453FE4F27
:100DF0009081905797FD9195000F111FF801E353D3
:100E0000FE4F00810052110B2003F001219FF00DD5
:100E1000112408E310E0091B110997FD1395400305
:100E20009001419F300D1124E20FF31F9F01220F0B
:100E3000331F2E0F3F1F37FF02C021583F4F220F95
:100E4000232F221F330B620F1F910F9108950F93D1
:100E50001F93522F10E0F801EE0FFF1FE353FE4FD8
:100E6000A081A052BB0B9D015203F001539FF00DD6
:100E70001124000F111FD801A453BE4F0C9100572D
:100E8000110B40039001419F300D11242E0F3F1F85
:100E900037FF02C021583F4F220F232F221F330B51
:100EA000620F1F910F910895EF920F93972F23E0F8
:100EB000029FB0011124759567956E0D792F0F91E2
:100EC000EF900895322F50E0FA01EE0FFF1FE35329
:100ED000FE4F9081905297FD9195440F551FFA0156
:100EE000E453FE4F2081231B330B290F311D97FD47
:100EF0003A95620F0895E42FF0E0EE0FFF1FE353E1
:100F0000FE4F6081621B0895E42FF0E0EE0FFF1F9B
:100F1000E453FE4F6081621B0895622F0895E42F11
:100F2000F0E0EE0FFF1FE453FE4F408134EE439F8D
:100F3000412D1124E82FF0E050E0445E5F4FDA01CC
:100F4000A21BB1099D01B7FF03C03195219531095D
:100F500093E0220F331F9A95E1F7AF01421B530B29
:100F60009A0157FD20E0582F259F212D1124822F13
:100F70000895E42FF0E0EE0FFF1FE453FE4F408191
:100F800034EE439F412D1124E72FF0E050E0445E02
:100F90005F4FDA01A21BB1099D01B7FF03C0319574
:100FA0002195310993E0220F331F9A95E1F7AF01A4
:100FB000421B530B9A0157FD20E0279F212D11243E
:100FC000722F08950E945B0508950E94660508959A
:100FD000FC019B01009729F480E077FF2BC080E89B
:100FE0000895AC0197FF04C044275527481B590BAF
:100FF000B901640F751F37FD10C0241B350BC901E3
:10100000A5E0880F991FAA95E1F70E949F3280E220
:10101000861BF7FF0FC081950895CB0165E0880F0F
:10102000991F6A95E1F7BA01621B730B0E949F3208
:1010300080E6EECF0895EF920F93CF93DF93D72FF3
:10104000C82FC9010E19BA010E94E807602F681B5A
:101050007D2F8C2FDF91CF910F91EF9008950F93FB
:10106000CF93DF93D72FC82FC901BA010E94E80799
:10107000682F600F7D2F8C2FDF91CF910F910895F6
:10108000EF920F931F93CF93DF93D62FC72F182F75
:10109000C9010E19010FBA010E94E807081B202F91
:1010A000219F212D1124822F6D2F7C2FDF91CF9135
:1010B0001F910F91EF900895EF920F931F93CF938D
:1010C000DF93D62F172FC82FC9010E19070FBA01AA
:1010D0000E94E807702F781B719F712D11246D2FCE
:1010E0008C2FDF91CF911F910F91EF9008950F9367
:1010F0001F93CF93DF93D62FC72F182FC901212F0E
:10110000201B022FBA010E94E807982F990F990F10
:10111000891B800F282F219F212D1124822F6D2FB5
:101120007C2FDF91CF911F910F9108950F931F9303
:10113000CF93DF93D62F172FC82FC901272F201B3E
:10114000022FBA010E94E807982F990F990F782F64
:10115000791B700F719F712D11246D2F8C2FDF91D2
:10116000CF911F910F910895E82F86FDE0952E2FC6
:101170002F7086FD2F5FE695E695E695E670F0E028
:10118000EB58FE4F9181929F902D212D1124929525
:101190009F702295207F922B2081920F87FD919541
:1011A00080E8890F08950F931F93CF93DF938B01EE
:1011B000D82FC42F822F0E94B408EC2FF0E0EE0F3E
:1011C000FF1FE453FE4F90819058890F87FD819552
:1011D000880F682F2CE0629F612D1124600F712F02
:1011E0008D2FDF91CF911F910F91089540910801AC
:1011F0005091090125E038E0429FC001439F900DC6
:10120000529F900D1124875E994C90930901809311
:101210000801890F0895AC018230910508F4089502
:101220009FEF413E8EE1580740F49A0195E03695D4
:1012300027959A95E1F798E0920F61E0E62FE90F84
:10124000FF27FF1F9F0135952795822F229FF001D1
:10125000239FF00DF00D11244E175F0738F49FEF18
:10126000920F961758F78FEF860F08952F3FE9F3E7
:1012700061E0620FF6CF0F93CF93DF93D72FC82F84
:1012800047FD419588E390E0841B910947FD9395C4
:10129000889FB001899F700D700D1124229FC0019D
:1012A000239F900D900D1124860F971F0E940B090C
:1012B000982F990F890F682F600F7D2F8C2FDF914A
:1012C000CF910F91089530E020E0869F212D969FC9
:1012D000200D311D1124C9010895AF92BF92CF9204
:1012E000DF92FF920F931F93CF93DF93362F472FF9
:1012F000E82FF0E0E75CFD4F71110FC0E4918E2FF5
:101300002E2F6E2F722FDF91CF911F910F91FF9093
:10131000DF90CF90BF90AF900895C72FD0E0249179
:10132000F22E022F10E056E0659FC0011124EFEF6E
:10133000F0E0BF010E948B32832F90E0880F991F4D
:1013400035E5369FD001379FB00D11248A1B9B0BCA
:10135000982F990F980F6F01CC1ADD0AC09ED0010B
:10136000C19EB00DD09EB00D11248B2F499FA001BE
:101370001124452F55276F01C41AD50AC09EA0011C
:10138000C19E500DD09E500D11245F01A91AB108C5
:10139000AC9E6001AD9ED00CBC9ED00C1124CD2C17
:1013A000DD24EC19FD09E09FE001E19FD00DF09FE5
:1013B000D00D1124ED2F62307105A1F050F46115AC
:1013C000710509F49ECF6130710581F0EB2F852FF7
:1013D00098CF6430710569F080F06630710509F4CA
:1013E00090CFF4CFE22F2B2F8D2F8BCFE22F252FF5
:1013F00088CFEB2F822F2D2F84CF2B2F8F2DE52FF2
:1014000080CFB0E0A0E0E7E0FAE00C94EA328C0193
:10141000FC01EC58FD4F8081682349F1D090F7041E
:10142000D091F804C091F604EC2EF12C0E94F6083D
:10143000282FC7018C549F4F68E671E00E949F32AD
:101440008E199F0997FD0396959587959595879594
:1014500023706C2F289F600D11247D2D8D2F0E94ED
:101460006D09462F282F672FC8010E94E507CDB7C9
:10147000DEB7E7E00C9406332F923F925F926F92B3
:101480007F928F929F92AF92BF92CF92DF92EF9214
:10149000FF920F931F93CF93DF93CDB7DEB72A97B9
:1014A0000FB6F894DEBF0FBECDBF8B837E836D83F6
:1014B00020910E0181E1289F802D11248F838F5E62
:1014C00089838A83853510F034E53A838091FD0461
:1014D0008C83FF81EF2FF0E0FA87E987CF01880F37
:1014E000991F9C0124533E4F69013B81832F90E05B
:1014F000FC013196F887EF838A8199859817E8F087
:1015000081E0E981E43508F080E02A960FB6F8948E
:10151000DEBF0FBECDBFDF91CF911F910F91FF9026
:10152000EF90DF90CF90BF90AF909F908F907F9083
:101530006F905F903F902F900895E985FA85EC5861
:10154000FD4F808190910F018923F1F02090F604E6
:101550003090F7042F81388523503B4F39015B8051
:1015600010E0FC815F16D0F02091F804129F112D3D
:101570001124B101812F0E946D09462F282F672F5A
:1015800089859A850E94E50729853A852F5F3F4F17
:101590003A87298732E0C30ED11CAECFF301819187
:1015A0003F01F601A080A81ABB088180F301878162
:1015B000881A9908AA9C9001AB9C300D300D11241B
:1015C000889CC001899C900D900D1124820F931F5F
:1015D0000E940B09082F6091F90421E0620F08F4C2
:1015E0006FEFF301EE0FFF1FED5FF44085899689E1
:1015F0000E9463097C019401A501B101812FED8155
:10160000FE8109951B015394182FABCFB0E0A0E0E9
:10161000ECE0FBE00C94E9328C01C0910E0181E119
:10162000C89FC02D112421E1D22EDC0ECD2C24E543
:101630002D1510F494E5C92E2091F90431E0230F03
:1016400008F42FEF30E050E040E06FEF7FEF80E0F4
:1016500090E00E94B3327901D0E02C2FCC1550F0ED
:1016600081E0F3E5FD1508F480E0CDB7DEB7E8E0F2
:101670000C940533FE01EC58FD4F808190910F01D1
:10168000892311F14091FD044150042E000C550BAB
:1016900047FF1CC0C7016091F90421E0620F08F404
:1016A0006FEF0E946309AC016091F6047091F7043A
:1016B0008091F804F80109950E946D09462F282FA2
:1016C000672FCE010E94E5072196C7CFFA01E350AC
:1016D000FB4F818982130AC0FA01EE0FFF1FE3500E
:1016E000FB4F818D928D8E159F05A8F241505109B7
:1016F000CFCFB0E0A0E0EFE7FBE00C94EA327C0152
:10170000C0910E0181E1C89FC02D112411E11C0F71
:10171000012F153508F004E56091F904669566958A
:1017200021E0620F08F46FEF8091F1049091F204D0
:101730000E946309D82ED0E0C01748F081E014352C
:1017400008F080E0CDB7DEB7E7E00C940633FE0189
:10175000EC58FD4F808190910F01892391F06091A9
:10176000F6047091F7048091F8042D2D4C2FF701A9
:1017700009950E946D09462F282F672FCE010E94E0
:10178000E5072196D9CFB0E0A0E0E9ECFBE00C94AE
:10179000E6326C01C0910E0181E1C89FC02D112479
:1017A00011E11C0FB12E153510F034E5B32E609108
:1017B000F904669566958091F1049091F2040E9477
:1017C0006309F82E80E48F0D0E94B40890E8A92EDA
:1017D000A80E8F2D0E94B40820E8922E980ED0E01B
:1017E000CB1548F081E0143508F080E0CDB7DEB7C6
:1017F000EBE00C940233FE01EC58FD4F8081909198
:101800000F018923A1F06091F6047091F704809193
:10181000F804EF2C0C2F292D4A2DF60109950E9472
:101820006D09462F282F672FCE010E94E5072196CC
:10183000D7CFB0E0A0E0EFE1FCE00C94E4325C0133
:10184000C0910E0181E1C89FC02D112411E11C0F30
:10185000F12E153510F034E5F32E6091F9046695FC
:101860008091F1049091F2040E946309782ED0E0F7
:10187000CF1548F081E0143508F080E0CDB7DEB731
:10188000EDE00C940033FE01EC58FD4F8081909107
:101890000F018923C9F1CE01880F991F84579E4FEC
:1018A000FC01E05CFF4F2081422F4057550B6A013D
:1018B0008F5B9F4FFC018081282F2052330B490101
:1018C000449F9001459F300D300D1124889CC0012C
:1018D000899C900D900D1124820F931F0E940B097B
:1018E000082F6091F6047091F7048091F804E72CBA
:1018F0009401A601F50109950E946D09462F282F34
:10190000672FCE010E94E5072196B2CFB0E0A0E09C
:10191000ECE8FCE00C94E9327C01C0910E0181E11D
:10192000C89FC02D112411E11C0FD12E153510F0C8
:1019300034E5D32E6091F90466958091F10490917D
:10194000F2040E946309C82ED0E0CD1548F081E072
:10195000143508F080E0CDB7DEB7E8E00C9405332D
:10196000FE01EC58FD4F808190910F01892311F108
:10197000CE01880F991F84579E4FFC01EF5BFF4FEC
:1019800020812052330B805C9F4FFC0140814057E7
:10199000550B6091F6047091F7048091F8040C2DBA
:1019A000F70109950E946D09462F282F672FCE0158
:1019B0000E94E5072196C9CF1F93CF93DF93EC01D7
:1019C000FC01EC58FD4F80816823B1F00E94F608BD
:1019D000182F0E94F60820E8829FC00111247FE79B
:1019E000790F612F8091F8040E946D09462F282FEE
:1019F000672FCE010E94E507DF91CF911F910895D7
:101A00000E94D8049C0190913A0380913B03982B4B
:101A100021F0309337032093360390913C0380915B
:101A20003D03982B21F03093350320933403E0914C
:101A30009704F0919804309749F082E0809338033E
:101A40000480F581E02D88E393E009950895809165
:101A5000330380FD16C081FD16C082FD16C0809143
:101A600032038823A1F0883280F428E0829FC001ED
:101A7000112468E270E00E949F32862F672B39F0B4
:101A8000089582E0089584E0089588E0089581E053
:101A900008958091330380FD14C081FD14C082FD40
:101AA00016C080913103882381F08E3180F420E5C7
:101AB000829FC00111246EE170E00E949F32862F48
:101AC000089584E1089588E2089588E0089580E506
:101AD000089580E00895F894E82FE295EF70F0E023
:101AE00031A1282F2F7081E090E001C0880F2A9546
:101AF000EAF7982F9095932391A392A1892B82A323
:101B0000789408959091100392FF06C0282F2871B1
:101B10002830F9F4877F846093FF06C0282F28714E
:101B20002831F1F4877E84612091110320FF06C0E3
:101B3000382F38713830D9F4877F816021FF06C093
:101B4000282F28712831D1F4877E816194FD877E0A
:101B50000895282F24712430F9F68B7F8860DCCF1C
:101B6000282F2471243101F78B7E8861DDCF382F37
:101B70003171313019F78E7F8860E0CF282F2171C5
:101B8000213121F78E7E8861E1CF82389105B9F14C
:101B9000B0F48133910509F47DC048F48932910590
:101BA00009F46DC08A32910509F47BC0089585332C
:101BB000910509F45FC08933910509F10895833EC9
:101BC0009105D9F138F4803E910529F1823E9105C5
:101BD00079F10895863E9105D9F1873E910509F482
:101BE0003EC0843E910541F52091110321FF24C0A0
:101BF0008091100384FD19C087EE90E00895209134
:101C00001003237009F05AC02091110323FF14C060
:101C100089E290E008952091100320FD38C03091B2
:101C2000110330FF09C024FF43C090E080E0089515
:101C30002091100322FDF7CF08952091100322FD7B
:101C40003AC03091110330FD39C024FFF5CFEDCFFC
:101C50002091100323FFF0CF24FDE7CFCDCF2091BB
:101C6000100323FD2EC03091110331FFEECF84EE1F
:101C700090E008952091100325FFDECFC9CF209179
:101C8000100325FD21C02091110323FFD5CF89E347
:101C900090E0D2CF2091100326FFCECF8AE290E0D1
:101CA00008952091100326FFC7CF81E390E00895A7
:101CB00083EE90E0089582EE90E0089580EE90E04B
:101CC000089586EE90E0089585E390E008951F93CF
:101CD000CF93DF930E94C50DEC01C11580E5D807B5
:101CE000F0F5C11580E4D80708F09CC0C03ED105CE
:101CF00020F5CD3CD10508F082C0C83AD10578F472
:101D0000C53AD10508F073C0C130D10519F120974B
:101D100009F1C430D105F0F4D0E0C0E01BC0C33CF1
:101D2000D105D0F7C85AD0E0CC0FDD1FC95EDE4F19
:101D30000990D881C02DD4640DC0C11580E2D807A8
:101D400008F0D1C0C11581E0D80708F05AC0C83EDC
:101D5000D10510F7CE01DF91CF911F910895C036C4
:101D600082E5D80718F5C03482E5D80708F06BC0C3
:101D7000C03282E5D80708F05FC0C11582E5D807F8
:101D800008F497C02C2F2695269580E2289F900175
:101D900011248C2F8370C1E0D0E002C0CC0FDD1F76
:101DA0008A95E2F7C22BD32BDD68D4CFC03A82E507
:101DB000D80760F4C03882E5D80708F459C0CF715D
:101DC000D0E0DC2FCC27C46FD06AC4CFC03C82E502
:101DD000D80708F462C0C03E82E5D80708F09CCF5F
:101DE000DC2FCC27CC27DF71C06FD06AB3CFC55AA8
:101DF000D0E0CC5EDE4FC881D0E0D064ABCFD06500
:101E0000A9CF8D2F0E94820D182FCE0199270E94F5
:101E1000C50DC12FD0E0DC2FCC27CC27DF71C82B1C
:101E2000D92B98CFCE0199270E94C50DCC27DF7002
:101E3000C82BD92BD06A8ECFCF71D0E0DC2FCC2726
:101E4000C16FD06A87CF2C2F26952695277080E208
:101E5000289F900111248C2F8370C1E0D0E002C034
:101E6000CC0FDD1F8A95E2F7C22BD32BDC6872CF33
:101E70002C2F26952695277080E2289F900111240B
:101E80008C2F8370C1E0D0E002C0CC0FDD1F8A959B
:101E9000E2F7C22BD32BDA685DCF8C2F8F710E94B3
:101EA000820DC82FD0E0DC2FCC27CC27DF71D06289
:101EB00051CF8C2F8F710E94820D55E0D695C7951A
:101EC0005A95E1F7CF70D0E0DC2FCC27282F30E0F7
:101ED00084FF05C044E0220F331F4A95E1F7C22B6F
:101EE000D32BD06937CF8D2F8F710E94820D182F81
:101EF000CE0199270E94C50DC12FD0E0DC2FCC2741
:101F0000CC27DF71C82BD92BD2CF809590910103BC
:101F100098239093010308958091F0049091B70461
:101F2000981301C008958F5F8770FACFA82FA7700C
:101F300023E0969587952A95E1F7FC01EE0FFF1FA8
:101F4000E80FF91FE60FF71F50E040E080E0219115
:101F500030E00A2E02C0369527950A94E2F72170E8
:101F60003327042E01C0220F0A94EAF7822B4F5F19
:101F70005F4F4330510559F70895983070F4883019
:101F800098F448E0949F9001112467ED72E0820F6D
:101F9000932F911D0E94960F08959C5F923020F41C
:101FA00064ED72E090E0F6CF80E00895262F277070
:101FB00091E001C0990F2A95EAF723E0769567959D
:101FC0002A95E1F7FB01EE0FFF1FE60FF71FE40F65
:101FD000F51F50E040E0682F70E08191DF0111971C
:101FE0009B01042E02C0369527950A94E2F72170D2
:101FF00021952827292328272C934F5F5F4F4330B3
:10200000510559F70895282F862F983068F4283005
:1020100050F438E0939FB0011124620F711D47ED19
:1020200052E00E94D60F08959C5F9230E0F7622F35
:1020300070E044ED52E0F5CF8093930308959091C2
:10204000930321E030E0F90101C0EE0F8A95EAF731
:10205000D90102C0AA0FBB1F6A95E2F7EA2B01C0A3
:10206000220F4A95EAF7892F8E23E81305C0292B02
:10207000822F0E941C10089520952923F9CF21E07A
:1020800030E001C0220F8A95EAF7209580919303F2
:1020900082230E941C1008959091F6028095892356
:1020A0008093F602282F277069F4891759F09091D0
:1020B000110392FF07C08695869586950E943F1072
:1020C0001092F602089521E030E001C0220F8A95B7
:1020D000EAF780919303822B0E941C10089580934D
:1020E00002030895662309F45DC08D3C41F40E940B
:1020F000490D819580933B030E94000D08958E3C0D
:1021000019F40E94490DF6CF8F3C31F40E94490D1D
:10211000819580933A03F0CF803D19F40E94490DD8
:10212000F8CF893D29F40E94270D80933C03E4CF2A
:102130008A3D21F40E94270D8195F7CF8B3D31F424
:102140000E94270D819580933D03D6CF8C3D19F4D5
:102150000E94270DF8CF9FE2980F983070F4815DB0
:10216000990B21E030E001C0220F8A95EAF78091B7
:102170003903822B80933903BFCF8D3D31F4809199
:102180003303816080933303B7CF8E3D21F4809178
:1021900033038260F7CF8F3D09F0AECF80913303D8
:1021A0008460F0CF40913A038D3C59F480913B0319
:1021B00087FF0DC010923B0341110BC010923103F9
:1021C00008C08E3C81F480913B0318169CF3442395
:1021D00081F080913C0390913D03892B09F08CCFD5
:1021E0001092320389CF8F3C49F447FFF0CF109211
:1021F0003A0380913B038111ECCFE0CF803D19F48D
:102200001416ACF3E4CF90913C03893D29F41916E0
:10221000F4F610923C03DBCF8A3D19F497FFD7CF39
:10222000F8CF90913D038B3D29F497FFD0CF1092CA
:102230003D03CDCF8C3D19F41916CCF3C8CF9FE2E6
:10224000980F983090F4815D990B21E030E0B9014E
:1022500002C0660F771F8A95E2F7CB0180959091B7
:102260003903892380933903B2CF8D3D31F48091B6
:1022700033038E7F80933303AACF8E3D21F4809168
:1022800033038D7FF7CF8F3D09F0A1CF80913303CA
:102290008B7FF0CF982F92959F7011F0892F94E04B
:1022A000282F2695269511F09E5F822F869509F09E
:1022B0009F5F892F08950F931F93CF93DF938B0117
:1022C000EA019091AD04943061F58093E9008FEFBD
:1022D0009091E800815095FD06C095ED9A95F1F733
:1022E00000008111F5CF8091E80085FF1AC00E949F
:1022F0007F03811111C08091E80085FD06C08091A7
:10230000E8008E778093E800F2CFF80181918F0189
:102310008093F100219779F78091E8008E77809380
:10232000E800DF91CF911F910F91089543E050E0B5
:10233000BC0184E00E945B11089546E050E0BC01BE
:1023400084E00E945B110895CF93DF93EC0148E095
:1023500050E0BC0181E00E945B1188E0FE01A3EA2D
:10236000B4E001900D928A95E1F7DF91CF91089545
:1023700081E08093E00080E28093D8001092C90051
:102380008FE19EE40197F1F700C0000087E090EB39
:10239000DC018093290590932A05A0932B05B09327
:1023A0002C0588E19CE00FB6F894A8958093600016
:1023B0000FBE90936000FFCF539A3BB1377F2BB194
:1023C00028604FB7F89489E993E0FC015191CF015F
:1023D00068E02BB9000000C057FF3BB9550F000063
:1023E00000C000C000C03BB900C06A9591F7F4E09E
:1023F00085399F0751F74FBF8FE594E00197F1F7BB
:1024000000C000000895CF93DF93C9E6D2E060E0FA
:10241000CE010E9466332196C11584E0D807B9F732
:10242000DF91CF9108950F931F93CF93DF93142FD4
:10243000022F843020F5643010F590E1899FE0018F
:10244000112484E0689FB0011124C60FD71FC75D17
:10245000DD4F82E090E0442311F090E080E0632FB4
:102460008C0F9D1F0E94663383E090E0112311F0D2
:1024700081E090E0602F8C0F9D1F0E946633DF91FA
:10248000CF911F910F9108951F93CF93DF93122F38
:102490008430E8F46830D8F44830C8F420E1629F12
:1024A000E001112450E0440F551FC40FD51F20E850
:1024B000829FC0011124C80FD91F632FCE018996B6
:1024C0000E946633612FCE018A960E946633DF91A7
:1024D000CF911F910895B0E0A0E0E1E7F2E10C9404
:1024E000E53289E3E82E85E0F82E09E313E0C0E049
:1024F0005801D0E015C0F401259134914D2D6D2F78
:102500008C2F0E94441282E0880E911CD39488E0A4
:10251000D812F1CF80E1A80EB11CDF5FD83019F0DE
:102520004501D12CE8CF6701D0E0F6012591349127
:1025300041E06D2F8C2F0E941312F60132962591E7
:10254000349140E06D2F8C2F0E94131284E0C80E4E
:10255000D11CDF5FD43049F780E1E80EF11CCF5F7A
:1025600000581F4FC43009F0C3CFCDB7DEB7ECE041
:102570000C940133CF93C82F6FEF811163E285E292
:1025800090E00E9466336FEFC11168E086E290E050
:102590000E9466336FEFC11169E087E290E00E940C
:1025A0006633CF91089580E00E94BA1260E088E21D
:1025B00090E00E9466330E946B120E94031281E039
:1025C0000E94BA120895FF920F931F93CF93DF9347
:1025D000F42E843070F5643060F520E1829F800134
:1025E000112434E0639FB0011124060F171F075D0B
:1025F0001D4F82E090E0442311F090E080E0800FD6
:10260000911F0E944833C82FD0E0DC2FCC2783E0F5
:1026100090E0FF2011F081E090E0800F911F0E9478
:1026200048339E01282BC901CDB7DEB7E5E00C94F5
:10263000083390E080E0F8CF0F931F93CF93DF93A0
:10264000843038F5683028F5483018F520E1629F6D
:102650008001112450E0440F551F040F151F30E86E
:10266000839FC0011124080F191FC80189960E9479
:102670004833C82FD0E0DC2FCC27C8018A960E94AF
:1026800048339E01282BC901DF91CF911F910F91F3
:10269000089590E080E0F8CF783048F4683070F426
:1026A000843060F4462F672F0E941C1308957D3FED
:1026B00041F4643018F441E0843050F090E080E060
:1026C00008957C3FD9F76430C8F78430B8F740E00C
:1026D0000E94E3120895CF92DF92FF920F931F930F
:1026E000CF93DF936C010091930380910203082B39
:1026F000C3E0D0E010E0FC2EC8010C2E02C095957E
:1027000087950A94E2F780FD0CC02197A0F7F12C81
:102710008F2DDF91CF911F910F91FF90DF90CF9080
:102720000895B6018C2F0E944C130E94670E0197EA
:1027300061F3EECFCF93DF93EC010E946B13BE01E8
:102740000E944C130E94670EDF91CF910895FC0107
:1027500024812223C1F0808191810E949A13929555
:102760009F70963091F058F4925F9F70923058F4B9
:10277000803F19F030F4883E30F481E008959A5F8C
:10278000F4CF843FD1F380E00895883EB0F3813FD9
:10279000D1F7F3CFA6E0B0E0E0EDF3E10C94EE3238
:1027A00049835A8349815A819923A1F0222391F0C8
:1027B000CA010E946B13182F682F89819A810E9489
:1027C000031069817A81812F0E944C132696E3E0E1
:1027D0000C940A33CA010E94BD0F182FF2CF85E274
:1027E00090E00E944833833289F486E290E00E94B0
:1027F0004833883059F487E290E00E94483391E0F2
:10280000893009F090E0892F8170089580E0FCCF35
:1028100048E050E068E170E085EF94E00E945633B4
:10282000109298030895E5EFF4E085E380838091AA
:10283000110190911201A091130181839283A383CE
:102840008FE784838FEF85830E9408140895A3E0A7
:10285000B0E0EDE2F4E10C94DF32C0906703D09079
:102860006803E0906903F0906A038FB7F894409092
:102870009C0450909D0460909E0470909F048FBFB4
:10288000530142018C189D08AE08BF080E94CC0479
:10289000AB01BC01409367035093680360936903E5
:1028A00070936A038091940390919503A09196038D
:1028B000B0919703880D991DAA1DBB1D80939403A9
:1028C00090939503A0939603B093970310913E03C2
:1028D000EEE3F3E019831A822FEFC20ED21EE11C41
:1028E000F11CC418D508E608F7083A81131324C070
:1028F000E981E0933E03712C81349747AB41B105E8
:1029000048F48091F504F82FF3707F2E19F0782E9B
:102910007694769480910C018130E1F1882319F14D
:10292000823011F40C94BA1C833011F40C94C41C42
:102930002396E2E10C94FB32218D328D2901712C1A
:10294000612CC414D504E604F70440F439813150F5
:1029500039832A812F5F2A833296C7CF280D391DEC
:10296000328F218FF6CF10920E014093F1045093D5
:10297000F2046093F3047093F40489E2EEE3F3E06D
:10298000ADEFB4E001900D928A95E1F781E080937C
:102990000C01CECF80910B01781224C09091F504E8
:1029A000937020910A0130E081E09217130609F438
:1029B00080E08170809310018091FA0490910F0162
:1029C000981739F080930F0140E060E080E00E94AA
:1029D000E2072DE2271560F0E72DF0E0EE55FC4C04
:1029E0000C94D23281E0E5CF80911001811102C0B8
:1029F0001A8273C040E060E080E00E94E207F8CFF6
:102A000030910E0181E1389F802D11248983182F88
:102A10001F5E012F153508F004E56091F6047091F2
:102A2000F7048091F8040E946D09F62EE72ED82E47
:102A30009981892F90E09B838A83FA81F01718F09F
:102A400021E02A8347C0EA81FB81EC58FD4F808159
:102A500090910F01892339F02D2D4F2D6E2D8A81F4
:102A60009B810E94E507EA81FB813196FB83EA8323
:102A7000E4CF30910E0181E1389F802D11248983AC
:102A8000182F1F5E012F153508F004E5E090F704BC
:102A9000F090F8048091F6048A83682F7E2D8F2DA4
:102AA0000E946D09D62EC72EB82E6091F9049A8126
:102AB000690F7E2D8F2D0E946D09F62EE72EA82E10
:102AC000F981EF2FF0E0FB83EA833A813017C0F001
:102AD00081E08A83143508F08BCF80910E018F5FDF
:102AE00080930E01EA81E11123CF82E080930C01F3
:102AF0008091100181111CCF71101ACF83E047CF54
:102B0000EA81FB81EC58FD4F908180910F01892370
:102B100061F02A2D4F2D6E2D90FD03C02B2D4D2DD4
:102B20006C2D8A819B810E94E5072A813B812F5F62
:102B30003F4F3B832A83C9CF90910E0181E1989F3B
:102B4000802D11248983182F1F5EF12E153510F06A
:102B5000E4E5FE2EE090F704D090F8042091F9040B
:102B600000E4029F012D1124F981EF2FF0E0FB8397
:102B7000EA833A813F1508F0ABCFEA81FB81EC583C
:102B8000FD4F808190910F018923C9F0EA81FB817B
:102B9000EE0FFF1FE353FE4F808182958F7060918F
:102BA000F604809F600D11247E2D8D2D0E946D09ED
:102BB000462F282F672F8A819B810E94E5072A8153
:102BC0003B812F5F3F4F3B832A83D3CF90910E01F0
:102BD00081E1989F802D11248983182F1F5EF12E8B
:102BE000153510F064E5F62EE090F704D090F80467
:102BF0002091F90400E4029F012D1124F981EF2FA7
:102C0000F0E0FB83EA833A813F1508F061CFEA8167
:102C1000FB81EC58FD4F808190910F018923E9F0F1
:102C2000EA81FB81EE0FFF1FE453FE4F6081069F98
:102C3000B001112455E0759567955A95E1F780919B
:102C4000F604680F7E2D8D2D0E946D09462F282FCA
:102C5000672F8A819B810E94E5072A813B812F5F34
:102C60003F4F3B832A83CFCF90910E0181E1989F04
:102C7000802D11248983182F1F5E012F153508F030
:102C800004E5F090F604E091F704EA83E090F8049C
:102C90006091F9046695669566958091F10490912E
:102CA000F2040E9463090E94B408805887FD819550
:102CB000880F282F3E2D239F212D1124822F6F2D29
:102CC0007A810E946D09F62EE72ED82E9981892FE0
:102CD00090E09B838A83FA81F01708F0B1CEEA81F5
:102CE000FB81EC58FD4F808190910F01892339F0D1
:102CF0002D2D4F2D6E2D8A819B810E94E507EA8143
:102D0000FB813196FB83EA83E6CF89EB97E00E9453
:102D1000790B8A83E2CE8FE897E0F9CF86E998E0D5
:102D20000E94860CF6CF87E798E0FACF8CE598E012
:102D30000E94190CEECF80E498E0FACF8DE897E07E
:102D4000E6CF84E897E0E3CF8BE797E0E0CF82E639
:102D500097E0DDCF84E597E0EBCF8BE399E0E0CF20
:102D60008FE298E0DDCF8BE198E0E2CF87E297E059
:102D70000E94C30BCECF80EF96E0FACF30910E01C8
:102D800081E1389F802D1124898331E1F32EF80EE3
:102D900080911001811125C06091F90420E1620F3A
:102DA00008F46FEF8091F1049091F2040E9463099E
:102DB0006AE070E00E948B32892B61F40E94F60871
:102DC000E4E58E9FC001112460910F01892F90E0EE
:102DD0000E94010AF1E0FA8323E52F1508F07DCE69
:102DE00007CE0F2DF4E5FF1508F404E53981232FF4
:102DF00030E03B832A8310E0EA81FB81E017F10792
:102E00004CF760910F018A819B810E94010A8A819F
:102E10009B8101969B838A83EFCF309110013A8387
:102E2000311120C06091F90420E1620F08F46FEFC6
:102E30008091F1049091F2040E94630965E070E0D2
:102E40000E948B32892B09F0D3CD0E94F608E4E56D
:102E50008E9FC001112460910F01892F90E00E9484
:102E6000DC0C3BCEF0910E0181E1F89F802D112406
:102E7000898321E1F22EF80E0F2D24E52F1508F499
:102E800004E59981892F90E09B838A8310E02A8151
:102E90003B81201731073CF031E03A8383E58F1501
:102EA00008F01BCEA5CD60910F018A819B810E9405
:102EB000DC0CEA81FB813196FB83EA83E8CF9091B9
:102EC0000E0181E1989F802D11248983182F1F5EA8
:102ED000012F153508F004E5E090F704F090F804B0
:102EE000E091F604EA836091F9046695669566952B
:102EF0008091F1049091F2040E9463090E94B40849
:102F0000805887FD8195880F682F2CE0629F612D86
:102F10001124FA816F0F7E2D8F2D0E946D09F62EE0
:102F2000E72ED82E3981232F30E03B832A839A81E4
:102F3000901718F0E1E0EA83CDCDEA81FB81EC58EF
:102F4000FD4F808190910F01892339F02D2D4F2D58
:102F50006E2D8A819B810E94E5078A819B81019663
:102F60009B838A83E4CF83ED98E0D1CE8FED96E00A
:102F7000CECE90910E0111E1919F100D1124409140
:102F8000F1045091F2046091F3047091F404809183
:102F90006B0390916C03A0916D03B0916E03841745
:102FA0009507A607B70708F04BCD0E94F60894E5F1
:102FB000899F90011124E32FFF27FB83EA83EC58BC
:102FC000FD4F808190910F01892309F439CD0E9432
:102FD000F60820E040E060E081FD13C00E94F608A2
:102FE000082F0E94F608F0E88F9FC00111247FE7A8
:102FF000790F602F8091F8040E946D09462F282FC9
:10300000672F8A819B810E94E5072091F90430E1B6
:10301000230F08F42FEF60E1822F90E00E946309F4
:10302000BC0184EF91E00E948B328091F104909179
:10303000F204A091F304B091F404860F971FA11D30
:10304000B11D80936B0390936C03A0936D03B093B9
:103050006E03F6CC80911001882329F040E060E0F7
:1030600080E00E94E20790910E0181E1682E989F16
:10307000600C11244091F1045091F2046091F3042A
:103080007091F40480918F0390919003A09191032B
:10309000B091920384179507A607B70708F08AC076
:1030A0006091F6047091F7048091F8040E946D0914
:1030B000562E472E382E0FE613E08CE891E09B83C6
:1030C0008A838CEC882E81E0982ECA80DB805601A2
:1030D0007801B3E02B2EF50181915F0190E0F701BB
:1030E0002081222309F46DC0232D452D642D0E94DB
:1030F000E507F6018781232D452D642D90E00E9480
:10310000E507F701818181937F012A94F1E0CF1ACD
:10311000D1082110E0CFEA81FB81838190E0F801A2
:103120002381222309F458C0232D452D642D0E94AC
:10313000E507EA81FB818481232D452D642D90E0F4
:103140000E94E5070E94F608837091E009F090E084
:10315000F80193830C5F1F4F2A813B81285F3F4F0B
:103160003B832A838216930609F0AFCF2091F9049E
:1031700030E1230F08F42FEF60E1822F90E00E94EE
:103180006309BC0188EB9BE00E948B328091F104C3
:103190009091F204A091F304B091F404860F971F6C
:1031A000A11DB11D80938F0390939003A093910371
:1031B000B093920331E03A8383E5861508F08DCC15
:1031C00017CC20E040E060E00E94E507F60187812F
:1031D00020E040E060E092CF20E040E060E00E942C
:1031E000E507EA81FB81848120E040E060E0A7CF31
:1031F00088ED96E00E94060B8CCD82ED96E0FACF2A
:103200008091FD0421E0382F321B08F430E0832F39
:1032100069EB76E00E943C0A7CCD69EB76E080E0C9
:10322000F9CF8091FD0421E0382F321B08F430E003
:10323000832F6EE776E0EECF6EE776E0F0CF8091F9
:10324000FD0421E0382F321B08F430E0832F6CE4BA
:1032500076E0E0CF6CE476E0E2CF8091FD0421E0FF
:10326000382F321B08F430E0832F64E376E0D2CFAE
:1032700064E376E0D4CF8091FD0421E0382F321B47
:1032800008F430E0832F6EE176E0C4CF6EE176E0A3
:10329000C6CF80910E01898381E19981989F802D0D
:1032A00011248983082F0F5EE82FF0E0FB83EA8367
:1032B000A8E2FA2E3A813C3070F08A819B819927EE
:1032C0009B838A83FA81F83188F121E02A830435CF
:1032D00008F403CC8DCBEA81FB81EC58FD4F808153
:1032E00090910F018923D9F0D090F704E090F80471
:1032F0001091F604809193030E944A116091F904A1
:103300008F9D100D1124610F7D2D8E2D0E946D0952
:10331000462F282F672F8A819B810E94E5072A81EB
:103320003B812F5F3F4F3B832A83C4CFEA81FB81E0
:10333000EC58FD4F808190910F01892379F06091C5
:10334000F6047091F7048091F8040E946D09462FED
:10335000282F672F8A819B810E94E507EA81FB81E4
:103360003196FB83EA83AECF30910E0181E1389F25
:10337000802D11248A838F5E89830091FD049A81B8
:10338000892F90E09B838A83FA81FC30F0F02A81B8
:103390003B8133273B832A83C901880F991FFC0196
:1033A000E453FE4F7F01EDEFAE2EE4E0BE2E662427
:1033B0006394F5E05F2EEA81E83128F1F1E0FA83C9
:1033C0002981243508F489CB13CBEA81FB81EC58A1
:1033D000FD4F808190910F01892379F06091F6046F
:1033E0007091F7048091F8040E946D09462F282FF0
:1033F000672F8A819B810E94E507EA81FB813196D4
:10340000FB83EA83C1CFEA81FB81EC58FD4F8081C9
:1034100090910F01892311F13090F6044090F70448
:1034200056E1C52E55E0D52E6DEF862E64E0962E22
:1034300010E0882D8A198017D0F02091F804129F8F
:10344000112D1124632D742D812F0E946D09462F9B
:10345000282F672F8A819B810E94E5078A819B81A3
:1034600001969B838A8392E0E90EF11CA4CFF701B9
:103470004081F4018181481B550BF7012181F40142
:103480008185281B330B449FB001459F700D700D43
:103490001124229FC001239F900D900D1124860FAF
:1034A000971F0E940B09282E6091F904262D620FA8
:1034B00008F46FEFF601819191916F010E94630909
:1034C000259C800D911D11248F3F910519F010F05E
:1034D0008FEF90E08095282F120F08F41FEF3FEF39
:1034E000831A930AA6CF30910E0181E1389F802D77
:1034F00011248A838F5E89830091FD048A81E82EDE
:10350000F12C3BE03E1508F04BC0C70199279B8387
:103510008A83880F991FFC01E453FE4F7F013DEF22
:10352000A32E34E0B32E6624639445E0542EEA8142
:10353000E83108F043CFEA81FB81EC58FD4F8081F0
:1035400090910F01892319F13090F6044090F7040F
:10355000A6E1CA2EA5E0DA2EBDEF8B2EB4E09B2E9D
:1035600010E0882D8A19801708F443C02091F804D0
:10357000129F112D1124632D742D812F0E946D092E
:10358000462F282F672F8A819B810E94E5078A8119
:103590009B8101969B838A8392E0E90EF11CC7CF41
:1035A000F701EC58FD4F808190910F018923E9F0DC
:1035B000D090F7041091F8049091F6049A838091CA
:1035C00093030E944A116091F904EA81F8E28F9F07
:1035D000E00D11246E0F7D2D812F0E946D09462F65
:1035E000282F672FC7010E94E5072FEFE21AF20A82
:1035F00088CFF7014081F4018181481B550BF70109
:103600002181F4018185281B330B449FB001459F24
:10361000700D700D1124229FC001239F900D900DFD
:103620001124860F971F0E940B09282E6091F90420
:10363000262D620F08F46FEFF601819191916F01D1
:103640000E946309259C800D911D11248F3F9105D7
:1036500019F010F08FEF90E08095282F120F08F4EA
:103660001FEF3FEF831A930A7CCF30910E0181E167
:10367000389F802D11248A838F5E89830091FD04F9
:103680009A81892F90E09B838A83880F991FFC0180
:10369000E453FE4F7F01EDEFAE2EE4E0BE2E662434
:1036A0006394F5E05F2EEA81EC3080F02A813B8163
:1036B00033273B832A839A81983108F477C0E1E06D
:1036C000EA83F981F43508F408CA92C9EA81FB81DA
:1036D000EC58FD4F808190910F01892311F13090BA
:1036E000F6044090F70456E1C52E55E0D52E6DEF57
:1036F000862E64E0962E10E0882D8A198017D0F06F
:103700002091F804129F112D1124632D742D812F07
:103710000E946D09462F282F672F8A819B810E9466
:10372000E5078A819B8101969B838A8392E0E90E5B
:10373000F11CB9CFF7014081F4018181481B550B81
:10374000F7012181F4018185281B330B449FB001CF
:10375000459F700D700D1124229FC001239F900D75
:10376000900D1124860F971F0E940B09282E60913F
:10377000F904262D620F08F46FEFF6018191919103
:103780006F010E946309259C800D911D11248F3FBC
:10379000910519F010F08FEF90E08095282F120F0F
:1037A00008F41FEF3FEF831A930AA6CFEA81FB814B
:1037B000EC58FD4F808190910F01892379F0609141
:1037C000F6047091F7048091F8040E946D09462F69
:1037D000282F672F8A819B810E94E5078A819B8120
:1037E00001969B838A8367CF20910E0181E1289FF8
:1037F000802D11248A838F5E89830091FD049A8134
:10380000892F90E09B838A83880F991FFC01E453E2
:10381000FE4F7F013DEFA32E34E0B32E6624639468
:1038200045E0542EEA81EC3068F00A811B811127B3
:10383000083108F477C081E08A839981943508F4CF
:103840004CC9D6C8EA81FB81EC58FD4F808190912C
:103850000F01892311F13090F6044090F70486E1BE
:10386000C82E85E0D82E9DEF892E94E0992E10E089
:10387000882D8A198017D0F02091F804129F112DFD
:103880001124632D742D812F0E946D09462F282F3E
:10389000672F8A819B810E94E5078A819B8101961F
:1038A0009B838A8392E0E90EF11CBCCFF701408133
:1038B000F4018181481B550BF7012181F4018185B9
:1038C000281B330B449FB001459F700D700D1124D0
:1038D000229FC001239F900D900D1124860F971FEA
:1038E0000E940B09282E6091F904262D620F08F41E
:1038F0006FEFF601819191916F010E946309259C00
:10390000800D911D11248F3F910519F010F08FEF5C
:1039100090E08095282F120F08F41FEF3FEF831AD5
:10392000930AA6CFF801EC58FD4F808190910F01CA
:103930008923E9F0E090F704F090F804F091F604A0
:10394000FA83809193030E944A116091F9042A81BD
:1039500038E2839F200D1124620F7E2D8F2D0E944F
:103960006D09462F282F672FC8010E94E5070F5FBA
:103970001F4F5ECF70920B018091F504837080938E
:103980000A010E94DC11BAC88091980381110E943B
:1039900008144091F1045091F2046091F304709185
:1039A000F4042FB7F89480919C0490919D04A09109
:1039B0009E04B0919F042FBF841B950BA60BB70BE1
:1039C0004097A105B10510F40C94981410920C01C5
:1039D0000C9498148091010390910003892B80939B
:1039E000CA029091FF02992391F0892B8093CA0219
:1039F00020E08CEC92E0FC013191CF0131112F5F7E
:103A0000F2E0823D9F07B9F721111092FF0248E0D2
:103A100050E067EF72E08AEC92E00E948A33892BD3
:103A2000A9F088E0EAECF2E0A7EFB2E001900D9295
:103A30008A95E1F7E0919704F0919804309731F07E
:103A40000280F381E02D8AEC92E0099508958823A5
:103A500021F00E94850F0E94EA1C0895882339F006
:103A600090910103982B909301030E94EA1C089502
:103A70008823D1F19CEF980F913A78F4ECECF2E0C6
:103A80009191891303C0DF0111971C9292E0E23DEE
:103A9000F907B1F70E94EA1C089590E2980F983058
:103AA00050F4877091E001C0990F8A95EAF7892F49
:103AB0000E94850FEFCF9BE5980F933028F490E09C
:103AC00080E00E942305089598E5980F9B3128F423
:103AD00090E080E00E94FE04089593E3980F9331F4
:103AE00018F460E00E9472100895CF93C82F8823C5
:103AF000B1F08CEF8C0F813A00F5ECECF2E082ED46
:103B000092E0DF012D91C21761F08A179B07D1F770
:103B10006C2F8AEC92E00E94E4040E94EA1CCF9190
:103B200008952191C21303C0DF0111971C928E17D3
:103B30009F07B9F70E94EA1CEBCF80E28C0F883018
:103B400068F4C77021E030E001C0220FCA95EAF79F
:103B500080910103822B80930103DFCFEBE5EC0F13
:103B6000E33040F4F0E0EC5EFE4F808190E00E9494
:103B70002305D5CFE8E5EC0FEB3150F4F0E0EE0F84
:103B8000FF1FE95EFE4F808191810E94FE04C7CF36
:103B900083E38C0F833118F661E08C2F0E94721042
:103BA000BECF1F93CF93DF93182FD0E0C0E08933AF
:103BB00011F4C0E5D0E0812F0E94751D209739F4E3
:103BC000812F0E94381DDF91CF911F9108958FE9B9
:103BD0009FE00197F1F700C000002197EFCF0F930E
:103BE0001F93CF93DF93C62FD42F022FFC01858123
:103BF0008823A9F0609328050E94D8049093270594
:103C000080932605C77081E001C0880FCA95EAF746
:103C10000E942E1DDF91CF911F910F9108958091E9
:103C20002805681332C080912605909127050E94CF
:103C3000BD04883C910548F510E21D0FCD17B9F081
:103C400080E28C0F883040F4C77081E001C0880F9B
:103C5000CA95EAF70E94271D183048F481E09D2F8D
:103C6000977001C0880F9A95EAF70E942E1D802F49
:103C70000E94D11D183070F6D77081E001C0880F06
:103C8000DA95EAF70E94271DC5CFC77081E001C011
:103C9000880FCA95EAF7F6CFA8E0B0E0E2E5FEE1CA
:103CA0000C94E6328E010F5F1F4F88E0F8011192ED
:103CB0008A95E9F78DE4C82E81E0D82EF12CE12C0D
:103CC000AA24A394B12CF60181916F018F3F09F4CE
:103CD00043C0F894E82FE295EF70F0E021A18F70D7
:103CE000A50102C0440F551F8A95E2F7CA01922F21
:103CF000982B91A392A18095892382A3789400C0E8
:103D0000E5E5F1E0912C31E021912F3F09F465C008
:103D1000A22FA295AF70B0E090968C9190E02F709A
:103D200002C0959587952A95E2F780FD56C0832FAE
:103D3000982A330F51E0ED35F50731F7F601319749
:103D400080818F3F11F00E946B0D80EA8A95F1F718
:103D5000F801EE0DFF1D9082EFEFEE1AFE0AF8E07B
:103D6000EF16F10409F0AFCF48E050E0B80188E069
:103D700093E00E948A33892B91F188E0F801A8E052
:103D8000B3E001900D928A95E1F781E080930703FB
:103D90000E94D80490930603809305038091050345
:103DA000909106030E94BD040597E8F048E050E0BA
:103DB00068E073E089E293E00E948A33892BC1F0C6
:103DC00088E0E8E0F3E0A9E2B3E001900D928A9583
:103DD000E1F781E01092070307C080E0A9CF80914E
:103DE00007038111DBCF80E02896EBE00C940233CF
:103DF00080E0F0CF9091110392FB222720F9281741
:103E000079F080FB92F99093110360911003709107
:103E1000110384E090E00E94843382E00E944C1001
:103E2000089590E080E00E945033863E9E4F19F442
:103E30000E94EF13089580E00895CF93109201033C
:103E4000C6E0ECECF2E0DF018C2F1D928A95E9F7D9
:103E500090E080E00E94230590E080E00E94FE0454
:103E6000109200030E94EA1CE8E3F3E0DF011D92D8
:103E7000CA95E9F71092310310923203109233037E
:103E80000E94000DCF910895AAE2B0E0EAE4FFE1BC
:103E90000C94EE328FEA94E02091F100DC012D9336
:103EA000CD01B4E0873B9B07B9F78091B004833024
:103EB00009F472C0B8F4813009F449C0823009F4C1
:103EC000B3C08091E80083FF8BC28091AF049091D2
:103ED000B0049A3008F084C2E92FF0E0E053FC4CC3
:103EE0000C94D2328A3009F48EC08B3009F471C040
:103EF000893039F78091AF04813219F78091B3048A
:103F00009091B404009711F00297D9F68091E800DF
:103F1000877F8093E8008091E80082FF38C090910D
:103F2000F3008091F200029731F48091F10081302A
:103F300011F0863021F48091F1008093A2048091E9
:103F4000E8008B778093E8000E94B003BACF80919D
:103F5000AF04813A09F0B5CF8091E800877F809364
:103F6000E8008091B3049091B404892B61F468E077
:103F700083EA94E070E00E945C048091E8008B7713
:103F80008093E8009ECF60E090E080E0F3CF8091E6
:103F9000AD048111C0CF95CF8091AF04813A09F073
:103FA00090CF8091B3049091B404892B09F089CF0C
:103FB0008091E800877F8093E8008091E80080FF8F
:103FC000FCCF80910D018093F1008091E8008E7705
:103FD000B9CF8091AF04813209F073CF8091B304DF
:103FE0009091B404892B09F06CCF8091E800877F11
:103FF0008093E8000E94B0038091B10480930D018A
:104000000E941D1F5ECF8091AF04813209F059CF0D
:104010008091E800877F8093E8000E94B003809140
:10402000B2048093A1044DCF8091AF04813A09F08E
:1040300048CF8091E800877F8093E8008091E80076
:1040400080FFFCCF8091A104BECF803899F08238E8
:1040500009F0C6C18091B3048F70873008F0C0C1E9
:104060008093E9008091EB0085FB882780F910920E
:10407000E90006C08091AB049091AC04911182607C
:104080009091E800977F9093E8008093F100109260
:10409000F1008091E8008E779FC1882309F48DC1DB
:1040A000823009F09DC18091B104811190C180914D
:1040B000B3048F702FEF280F263008F091C1809342
:1040C000E9002091EB0020FF82C1933031F4809110
:1040D000EB0080628093EB007AC19091EB009061DD
:1040E0009093EB0021E030E001C0220F8A95EAF7BF
:1040F0002093EA001092EA008091EB008860EACFFA
:1041000081116EC11091B1041F778091E300807816
:10411000812B8093E3008091E800877F8093E80003
:104120000E94B0038091E80080FFFCCF8091E30003
:1041300080688093E30082E0111183E08093AD04F6
:104140004FC18058823008F04BC12091B1043091AA
:10415000B2042C3DE3E03E07A1F583E08A838AE2C6
:1041600089834FB7F894DE01139620E03EE051E2D8
:10417000E32FF0E050935700E49120FF03C0E29555
:10418000EF703F5FEF708E2F90E0EA30C0F0C7967F
:104190008D939D932F5F243159F74FBF8091E80095
:1041A000877F8093E8006AE270E0CE0101960E946A
:1041B0005C048091E8008B778093E80011C1C09681
:1041C000E7CF8091B3049091B404432F5527433037
:1041D000510509F44AC078F54130510509F47AC017
:1041E0008BE590E0E9E7F5E04230510509F0F8C0D1
:1041F0002091E800277F2093E8002091B5043091BA
:10420000B6048217930708F49C0140E0211531059C
:1042100009F065C0411163C08091E80082FDC9CFFB
:104220008091AD04882329F2853019F28091E8004D
:1042300083FFF2CFBECF4132510509F43CC0423278
:10424000510509F0CDC08330910508F0C9C0FC01CB
:10425000EE0FFF1FE058FE4F0190F081E02D8358D4
:104260009E4FDC018C9190E01AC03327213031053C
:10427000D1F02115310561F02230310509F0B0C0CF
:10428000E6EEF5E0E4918E2F90E0E6EEF5E007C073
:10429000EAE0F6E0E4918E2F90E0EAE0F6E00097A5
:1042A00009F49EC0A5CFE8EFF5E0E4918E2F90E0F1
:1042B000E8EFF5E0F4CF8330910508F091C0880F66
:1042C000991FFC01EA57FE4F0190F081E02D89E033
:1042D00090E08ECF82E190E0E4EDF5E089CF80912F
:1042E000AD04882309F465CF853009F462CF80914D
:1042F000E80083FD5ECF8091E80082FD8DCF809144
:10430000E80080FF83CF9091F3008091F2002115A7
:10431000310519F08830910550F041E0089709F017
:1043200040E08091E8008E778093E8006FCF449161
:104330004093F1003196215031090196E8CF803841
:1043400009F04EC08091E800877F8093E80080915B
:10435000AE048093F1009DCE811142C01091B10452
:104360001230F0F58091E800877F8093E800109389
:10437000AE040E94B003112311F084E005C08091C7
:10438000E30087FDFACF81E08093AD0442E061EC69
:1043900081E00E94CF0342E261EC84E00E94CF03FF
:1043A00042E261EC82E00E94CF0342E260EC83E0F3
:1043B0000E94CF038091AD0413C08091B10481307D
:1043C00079F481E0933009F080E08093AC0410929E
:1043D000E9008091E800877F8093E8000E94B003A5
:1043E0008091E80083FF0AC08091E800877F809376
:1043F000E8008091EB0080628093EB00AA96E3E0F6
:104400000C940A330E941D1F2FEF84E39CE021507F
:1044100080409040E1F700C0000088E19CE00FB6CA
:10442000F894A895809360000FBE90936000FFCF32
:10443000A8E0B0E0EEE1F2E20C94E1328C01DC01A4
:1044400014968C911497882309F4B8C021E04C91FC
:1044500011965C91119712966C91129713967C911C
:10446000139715969C910E94CA137C01F8018581CF
:10447000882309F43CC1C70197578038910508F09B
:1044800078C5FFE0FE1508F489C08FEF93E00E9425
:104490004833811183C069E6A62E62E0B62EE11092
:1044A00047C0FE01339686E0DF011D928A95E9F749
:1044B0005AE0452E7501BFEFEB1AFB0AC5010E94B9
:1044C000483389831A82882309F468C0813009F04F
:1044D00079C06501E2E0CE0ED11CC7010E944833CD
:1044E0008A83882309F45AC09FEF980F933070F5A0
:1044F000F3E0AF0EB11CC6010E9448338B838823C2
:1045000009F44CC01C82DE0111967D01F701208167
:10451000222381F2213009F095C09181828191306E
:1045200009F052C0F2E0EF0EF11C0E94D11D53C001
:10453000A11424E0B20691F1C5010E944833811113
:1045400001C0EA943FEFA31AB30AA9CF5601843001
:10455000D1F642E0E42EF12C56012FEFA21AB20A56
:10456000C6010E944833E1E0F0E0EC0FFD1FEE0DC4
:10457000FF1D8083882391F08C3741F4E2E0F0E066
:10458000EC0FFD1FEE0DFF1D1082BDCF3FEFE31AB4
:10459000F30A650187E0E816F104F1F68091F6026E
:1045A000877061F0D80115968C91882339F080913D
:1045B000110382FF03C082E00E944C102896E0E1C4
:1045C0000C94FD3257019FCF923049F422E0E20E65
:1045D000F11C0E94751DEFEFEE1AFE0A97CF933083
:1045E00031F432E0E30EF11C0E94381DF4CF943018
:1045F00021F08FEFE81AF80AEECF92E0E90EF11CF5
:1046000030E020E0B7016F5F7F4FD70111964C91EA
:104610008053990B8A30910550F021503109D8F21E
:10462000EFE9FFE03197F1F700C00000F6CF429EBE
:10463000F001439EF00D11249C012E0F3F1F842F8B
:104640007B01E0CFE22FF0E0E754FE4F5490822F41
:1046500086958695869590E0FC01E755FE4F64901F
:104660002770712C022E02C0759467940A94E2F7A9
:1046700031E063227724FC01E756FE4F8490912CB1
:10468000022E02C0959487940A94E2F7A1E08A2250
:104690009924FC01E757FE4FC490D12C02C0D59459
:1046A000C7942A95E2F7B1E0CB22DD2461147104AE
:1046B00019F081EE0E94751D8114910419F086EEA7
:1046C0000E94751D852D0E94D11D8114910419F041
:1046D00086EE0E94381D6114710419F081EE0E946B
:1046E000381DC114D10409F476CF8CE21ECFF70136
:1046F000E851FC47E730F10508F027C4E652FC4CCE
:104700000C94D23226E241EE61EEC8010E94EF1D08
:1047100045CF27E245EE65EEF8CF26E241EE60EEAA
:10472000F4CF27E245EE64EEF0CF26E241EE62EEF2
:10473000ECCF27E245EE66EEE8CF28E241E0EBCF92
:104740008091100381608093100395C080911103C4
:104750008860809311038FC0809110038260F3CF33
:10476000809110038460EFCF809110038860EBCFBD
:10477000809111038160EDCF809111038260E9CFB8
:10478000809110038061DFCF809110038062DBCFC6
:10479000809110038064D7CF0E941D1F8091100369
:1047A0008068D1CF809110038C60CDCF80911103B0
:1047B0008360CFCF809110038E7FC5CF809111038E
:1047C000877FC7CF809110038D7FBDCF809110036D
:1047D0008B7FB9CF80911003877FB5CF8091110374
:1047E0008E7FB7CF809111038D7FB3CF809110035F
:1047F0008F7EA9CF809110038F7DA5CF809110036C
:104800008F7BA1CF0E941D1F809110038F779BCFBC
:1048100080911003837F97CF809111038C7F99CF74
:104820008091100382FB992790F921E0922790FB59
:1048300082F990FB83F987CF80911103982F90958F
:1048400091708E7F892B90FB81F983CF909110031B
:10485000892F8F7B96FF806476CF0E941D1F9091D9
:104860001003892F97FB87F980586DCF61E08EE0A8
:1048700090E00E946633609110037091110384E010
:1048800090E00E9484330E941D1F88CE60E0EFCF2D
:1048900090911003892F8F7E94FF806154CF909167
:1048A0001003892F8E7F90FF81604DCF909111036F
:1048B000892F877F93FF88604CCF8091D20281112E
:1048C0000FC089E2ECECF2E022ED32E09191891325
:1048D00003C0DF0111971C922E173F07B9F732C3AF
:1048E00085E3F0CFF7E7EF16FCE7FF0609F0F9C222
:1048F00081E00E94631043E062E081E00E941F10AB
:104900004DCE8091F50491E089278093F5041092B3
:104910000C01809198038160809398033FCE47E01B
:1049200056E062E176E00E94550538CE42E156E05D
:1049300067E076E0F8CF48ED55E063EE75E0F3CF41
:1049400043EE55E068ED75E0EECF4CEB55E06AECD8
:1049500075E0E9CF4AEC55E06CEB75E0E4CF40EA56
:1049600055E06EEA75E0DFCF4EEA55E060EA75E0AB
:10497000DACF41E755E06FE775E0D5CF4FE755E077
:1049800061E775E0D0CF61E081E00E94EE0506CEE0
:1049900061E085E0FACF61E08DE0F7CF61E082E190
:1049A000F4CF27E7E2162CE7F20609F457C038E700
:1049B000E3163CE7F30609F455C0F8018581E08071
:1049C000F180882309F482C0C7010E946B13D82E9E
:1049D000682FC7010E940310B7018D2D0E944C1350
:1049E0000E94670E7C01882ED8011596AC90159711
:1049F00016969C9092943FE093228091F6028770E5
:104A0000F1F0CA2CAA20E1F08F2D807F803451F084
:104A100080E28E0D883098F0911004C08F2D807E3A
:104A2000803269F08091110382FF09C082E00E9408
:104A30004C108091F6028770CC24C3948111C12C54
:104A4000BF2CB2942FE0B222BBE0BB1508F4A6C085
:104A5000EB2DF0E0EF51FC4C0C94D23281E00E943F
:104A60003F1049CF82E0FBCFEBE5EE16ECE7FE0608
:104A700059F1FCE5EF16FCE7FF06E1F02AE5E21646
:104A80002CE7F20609F099CF81E01BC00E941D1FA0
:104A90003FEF84E39CE0315080409040E1F700C05C
:104AA00000000E94B8116FEF7FEF90E080E00E945D
:104AB000843331C28091110382FB882780F991E011
:104AC00089270E94FA1E79CF80E0FBCFC7010E94A0
:104AD000BD0FD82E81CFEF2DEF70DE2E8F2D807F72
:104AE00019F0D29490EFD922AA20B9F0DD2069F014
:104AF00080E28E0D883010F0811009C08091010392
:104B0000D82AD09201030E94EA1C8E2D45C08091C4
:104B10000003D82AD0920003F6CF8E2D0E94381DB4
:104B2000DD20E1F180E28E0D883010F0811004C0AC
:104B30008D2D0E94850F06C0D09480910003D8224D
:104B4000D09200030E94EA1C29C0FF2DFF70DF2EC7
:104B50008F2D807F803219F0D29480EFD822882068
:104B600059F021E0821609F481C0AA2009F48DC011
:104B7000992009F44FC0C9CF8091110382FD46C02E
:104B8000AA20F1F1DD2039F080910103D82AD092DA
:104B900001030E94EA1C80E00E94751DAB2DA85005
:104BA000BB0B149710F40E944805CC20A9F080910B
:104BB000F60280FD11C0F8011582869586958695CE
:104BC0000E946310C8010E9418228091F602869507
:104BD000869586950E943F1020E0D8014C91119651
:104BE0005C91119712966C91129713967C91139782
:104BF00014968C91149715969C910E94CA13DECC42
:104C000080E00E94381DDD2049F292CFAA20A1F059
:104C1000911004C08D2D0E942E1DC0CF31E0931243
:104C2000BDCF8091FF029D2D9823D91609F4B6CFF0
:104C3000D82AD092FF02B2CF9110B0CF8D2D0E9412
:104C4000271D9091FF028D2D892329F08D2D8095B0
:104C500089238093FF028091D3029D2D982309F42C
:104C60009DCFD094D822D092D30298CFAA2029F0F9
:104C700085E0891508F492CFCDCF94E0991508F41A
:104C80008DCF8D2D0E94271D89CF9920D1F3A9E3C7
:104C90008A1209C0BFEFE7EEF3E0B150E040F04008
:104CA000E1F700C000008E2D0E94381D77CF8F2DB8
:104CB00086958695837061F0813009F06FCFC701CA
:104CC0009370A11002C080E090E00E94FE0466CFC5
:104CD000C7019370A11002C080E090E00E942305FC
:104CE0005DCF6A2D8E2D0E94721058CF8F2D83704C
:104CF00091F5A11053CF4E2D429546954770440F24
:104D0000440F8E2D8F70042E01C0880F0A94EAF78D
:104D10002E2D2071E4FE07C02FE030E001C0220FED
:104D20004A95EAF720953F2D369536953370323007
:104D300069F050F440910203313029F0822B842332
:104D40000E946F102BCF842B822BFACF282B8091BF
:104D500002038227F5CF8695AA2011F08F2D81704E
:104D6000882309F41BCF4E2D429546954770440F7A
:104D7000440F8E2D8F70042E01C0880F0A94EAF71D
:104D80002E2D2071E4FE07C02FE030E001C0220F7D
:104D90004A95EAF720953F2D369536953370323097
:104DA00069F050F440919303313029F0822B842331
:104DB0000E941C10F3CE842B822BFACF282B8091DB
:104DC00093038227F5CF2F2D2F70F22EAA2029F0E2
:104DD000822F0E9463108E2D1ECF8E2D0E94271DC4
:104DE0008F2D0E943F10DACE8E2D32EF8316B1F157
:104DF000381570F090EF8916D1F0A1EF8A1691F076
:104E0000AA2009F45EC0911080CE8F2D8F712AC028
:104E1000B3EF8B1651F1E4EF8E12F2CF80911103B4
:104E200082FD2FC08F2D8F71AA20D9F21BC0AA201E
:104E300081F0F4E0F91508F4B1CE2F2D2F7181E047
:104E400090E001C0880F2A95EAF790919303892793
:104E5000AFCF25E0291508F4A1CEEFCF8F2D8F71AC
:104E6000A110BFCF0E94631099CE80E0AA2009F460
:104E70009FCF9F2D9F7181E001C0880F9A95EAF71F
:104E800097CFAA2099F03F2D3F71F32E832F0E94D8
:104E900063108091110382FF07C0A8E0FA9EC00151
:104EA000112483608093F6028F2DDCCF81E00E9475
:104EB0004C10B1E0B91508F071CE82E00E944C10A0
:104EC0006DCE992059F0893309F0EDCEEFEFF7EE72
:104ED00023E0E150F0402040E1F7E3CE8F2D8F71C9
:104EE00080CF82E0B8E7EB16BCE7FB0609F401CD02
:104EF00083E0E8168CE7F80609F4D5CD08F0B4CDC8
:104F0000E114ACE7FA0609F4C1CDB1E0EB16BCE759
:104F1000FB0609F052CD0E940222E6E1EE16ECE714
:104F2000FE0609F0DFCC809101038A7A91E009F452
:104F300090E09093D20269E2811165E38AEC92E0FD
:104F40000E94E4040E94EA1C29CBF6E1EF16FCE77C
:104F5000FF0609F4B2CC809101038272F701E0529E
:104F6000F847E531F10508F01CCDE351FC4C0C94F9
:104F7000D232F701E851FC47E730F10508F4BECB27
:104F800010922805C7019057839738F684E090E087
:104F90000E9450339093110380931003F701E15066
:104FA000F047E232F10508F0CBCBEE5FFB4C0C94FE
:104FB000D232CF93DF938091F502807F09F04DC00C
:104FC0008091F402882309F448C0E091F0045091E4
:104FD000B704C091F002D091EF026091F10270919C
:104FE000F20247E05E17C9F18E2F90E0E49FF001D6
:104FF0001124E854FB4F2481222391F1489FF001B2
:10500000499FF00D1124DF01A854BB4F11962C913C
:1050100011972C1325C02C912D1322C015962C917D
:10502000159721111DC012962D913C91261B370B0F
:10503000283C3105A8F48091F5028F70806180933F
:10504000F502E254FB4F80818F70806180838FEE88
:1050500092E00E9418220E948C0FDF91CF91089558
:10506000FC013196E770BECFA4E1B0E0EAE3F8E2DC
:105070000C94E5328C0186E0F801DE011F96019068
:105080000D928A95E1F7F8018481E5809FEEA92EC3
:1050900092E0B92E9091F302911128C0882319F162
:1050A000EE20F1F0C8010E94A713F82E8823C1F06A
:1050B00087E0F801D50101900D928A95E1F7809182
:1050C000F302813031F48091EF029091F0020E945E
:1050D0009A130E94D9278F2D6496ECE00C9401332B
:1050E000C8010E941822FF24F394F5CFD080C1801C
:1050F00082809380F090F4022091F1023091F202CC
:10510000A401421B530BFF2009F4D9C0483C5105B0
:1051100008F092C08823F9F29091F0028091F50294
:10512000282F207F09F056C0C91214C09091EF02B9
:10513000D91210C0E11048C08F7080618093F502D1
:105140008FEE92E00E9418228091F502F80186838A
:10515000F12CC1CFE11038C06C2D8D2D0E94410380
:105160006C2D8D2D0E944103E82E8111F1CFDF8639
:10517000C88A8F8598890E949A13292F22952F70AB
:10518000243058F49F70223088F0992399F0F80168
:105190009681907F79F4FE2C9ECF2A5F2F7022306B
:1051A00068F0C8010E941822EF2CF5CF992311F066
:1051B000882389F3805E883070F3F3CF803F58F303
:1051C000815F833070F7E7CF8091F5028160809333
:1051D000F502BECFC91207C09091EF02D91203C0E9
:1051E000EE2009F48DC0C8010E94A713882309F49A
:1051F00077CFEE2009F474CF8091F502803288F0E9
:105200002091EF023091F002398728879B868A86A9
:105210009091F3029C871D868E87CE0108960E948E
:10522000182287E0F801AFEEB2E001900D928A9566
:10523000E1F70E94D92757CF9091F502292F207FBF
:1052400051F48FEE92E00E94182287E0F50111924E
:105250008A95E9F77DCF882309F43DCF8091F0024C
:105260008C1110C08091EF02D8120CC0E1100AC05E
:105270009683C8010E94182287E0F50111928A9551
:10528000E9F729CFC8010E94A713882309F428CF82
:10529000EE2009F425CF8091F502803210F22091A2
:1052A000EF023091F0023A8329839C828B829091A5
:1052B000F3029D831E828F83CE010196B0CF483CBE
:1052C0005105D0F6882309F40ECFFE2CEE2009F408
:1052D00007CF8091F0028C1120C08091EF02D8128C
:1052E0001CC08091F50280FD0FC0982F907F61F067
:1052F0008683903F31F0982F907F905F8F70892B3D
:105300008683C8010E94182287E0F801AFEEB2E060
:1053100001900D928A95E1F7DECEC8010E94A71395
:1053200081117FCF8091F50281608093F502C801E1
:105330000E941822D0CEABE1B0E0E1EAF9E20C9491
:10534000ED324E8B5F8B688F798F8A8F9B8F192FF1
:105350009111109200031D8A86E0FE017696DE010F
:105360001F9601900D928A95E1F70A8D002341F076
:1053700021E04F85588969897A89C8010E94CA133A
:105380000B8B1C8B87E0FE013F96DE011896019087
:105390000D928A95E1F7CE0108960E94342881117A
:1053A0000CC087E0FE013896DE01119601900D9247
:1053B0008A95E1F78C8581110BC017E08091F0048C
:1053C0009091B704891331C06B96E4E00C940933D3
:1053D0002091B70430E0C901019687709927409168
:1053E000F0044817190699F097E0929FD001939F17
:1053F000B00D1124A854BB4FFE01319601900D92BF
:105400009A95E1F78093B7040E948C0FD6CF0E9443
:105410001D1F1092B7041092F00487E0EFEEF2E047
:10542000DF011D928A95E9F7C8CF819FC001112441
:1054300088549B4F0E943428882331F28091F004D5
:1054400090E00196877099278093F004B7CFA6E08B
:10545000B0E0EDE2FAE20C94ED320E94D8048C0147
:1054600080910303909104038017910781F01982C2
:105470001A820E94D804682F49815A81792F80E0CE
:1054800090E00E949B291093040300930303269647
:10549000E4E00C940933A8E0B0E0E1E5FAE20C9412
:1054A000EF3266EE7EEF90E080E00E94843360E0B1
:1054B00082E090E00E94663360E083E090E00E942A
:1054C00066331092020360E074E184E090E00E9491
:1054D000843360E086E090E00E9466336FEF87E0FF
:1054E00090E00E94663340E050E0BA0188E090E02E
:1054F0000E94783360E084E290E00E94663360E0CE
:1055000087E190E00E94663360E08CE090E00E94CA
:10551000663360E08DE090E00E94663319821A8263
:105520001B821C821D821E821F82188648E050E06A
:1055300068E170E0CE0101960E94563340E050E0F1
:10554000BA0180E290E00E94783380E00E94BA12B3
:105550000E94D31240E050E0BA018FE090E00E9438
:10556000783340E050E0BA0183E190E00E94783364
:105570002896E2E00C940B331F920F920FB60F9215
:1055800011242F933F934F935F936F937F938F9348
:105590009F93AF93BF93CF93DF93EF93FF93D091FC
:1055A000E900DF708091EC00C82FC17080FDC0E879
:1055B0001092E9008091F000877F8093F00078944A
:1055C0000E94441F1092E9008091F000886080934F
:1055D000F000CD2BCF70C093E900FF91EF91DF91E8
:1055E000CF91BF91AF919F918F917F916F915F917B
:1055F0004F913F912F910F900FBE0F901F901895D4
:105600001F920F920FB60F9211242F933F934F9337
:105610005F936F937F938F939F93AF93BF93EF931A
:10562000FF938091E10082FF09C08091E20082FF38
:1056300005C08091E1008B7F8093E1008091DA00CA
:1056400080FF24C08091D80080FF20C08091DA00C4
:105650008E7F8093DA008091D90080FF9DC080E129
:1056600089BD82E189BD09B400FEFDCF81E0809350
:10567000AD048091A004811109C00E9460030E94C2
:1056800001048091E20084608093E2008091E10057
:1056900080FF17C08091E20080FF13C08091E2007C
:1056A0008E7F8093E2008091E20080618093E2002F
:1056B0008091D80080628093D80019BC85E08093E7
:1056C000AD048091E10084FF2BC08091E20084FF53
:1056D00027C080E189BD82E189BD89B5982F91708D
:1056E00080FFFBCF8091D8008F7D8093D800809180
:1056F000E1008F7E8093E1008091E2008F7E8093B5
:10570000E2008091E20081608093E2008091AE042B
:10571000882309F447C084E08093AD048091AD04F0
:105720008091E10083FF27C08091E20083FF23C0C6
:105730008091E100877F8093E10082E08093AD0457
:105740001092AE048091E1008E7F8093E100809101
:10575000E2008E7F8093E2008091E200806180937E
:10576000E20042E060E080E00E94CF038091F00020
:1057700088608093F000FF91EF91BF91AF919F916E
:105780008F917F916F915F914F913F912F910F90EA
:105790000FBE0F901F90189519BC1092AD04109277
:1057A000A00474CF8091E30087FD93E09093AD0453
:1057B000B5CF78941F921FB61F9211248F939F9399
:1057C000AF93BF9380919C0490919D04A0919E04FF
:1057D000B0919F040196A11DB11D80939C049093EC
:1057E0009D04A0939E04B0939F04BF91AF919F919D
:1057F0008F911F901FBE1F9018951F921FB61F926A
:1058000011248F939F93AF93BF9380919B04811139
:1058100013C080919C0490919D04A0919E04B0912E
:105820009F044196A11DB11D80939C0490939D04FB
:10583000A0939E04B0939F04BF91AF919F918F91CD
:105840001F901FBE1F901895CDB7DEB7C154D10968
:105850000FB6F894DEBF0FBECDBF85B7806885BF99
:1058600085B7806885BF84B7877F84BF0FB6F894FB
:10587000A89580916000886180936000109260001C
:105880000FBE80E890E00FB6F8948093610090938B
:1058900061000FBE89E69DE09093C9028093C80223
:1058A0000E9460030E9401048091E2008460809362
:1058B000E20078948091AD048823A1F01091E90072
:1058C0001F709091EC00892F817090FD80E8182B5B
:1058D0001092E9008091E80083FD0E94441F1F7030
:1058E0001093E90082E084BD93E095BD9AEF97BDE7
:1058F00080936E000E94EF13811102C00E94D312A8
:1059000084E08093230381E7A82E81E0B82E4DE642
:1059100051E08A01950161E070E0D9018D919D010E
:10592000E82FE295EF70F0E0D1A08F707B0101C00D
:10593000EE0C8A95EAF79E2D90959D2191A382A168
:105940008E2982A3F80181918F01E82FE295EF70F3
:10595000F0E0D1A08F707B0101C0EE0C8A95EAF7D0
:105960009E2D90959D2191A382A18E2982A3A5575A
:10597000B14099F68FE891E00197F1F700C000007F
:105980001091230364E273E0FB018E2F861B8117C5
:1059900008F455C00DE411E0F80181918F018F3FAB
:1059A00011F00E946B0DF1E005351F07A9F705E521
:1059B00011E0D8018D918D018F3F11F00E946B0D88
:1059C000B1E00D351B07A9F788E0E9E2F3E0DF015C
:1059D000282F1D922A95E9F7E8E0F3E0DF011D92F8
:1059E0008A95E9F70E94111F811102C00E944B2A7B
:1059F00082E090E00E9448338093120384E090E0BC
:105A00000E94503390931103809310030E944C1E08
:105A1000BFEFE6E7F1E0B150E040F040E1F700C051
:105A200000000E944C1E8091290380FF31C06FEF5F
:105A30007FEF90E080E00E9484330E94B811D5018E
:105A40002D915D01822F82958F7090E0DC01909600
:105A50008C9190E02F7002C0959587952A95E2F77A
:105A60008170DA019D91AD01292F22952F7030E0D0
:105A7000D90190962C9130E09F7002C03595279502
:105A80009A95E2F790E020FD92E0892B81937DCFFB
:105A900083E090E00E9448330E946F101092FD0452
:105AA0008FEF9FEF9093170580931605909319053C
:105AB0008093180590931B0580931A0590931D05FC
:105AC00080931C0590931F0580931E0590932105DC
:105AD00080932005909323058093220590932505BC
